{
  "contractName": "prisonManagement",
  "abi": [
    {
      "inputs": [],
      "stateMutability": "nonpayable",
      "type": "constructor"
    },
    {
      "anonymous": false,
      "inputs": [
        {
          "indexed": false,
          "internalType": "uint256",
          "name": "id",
          "type": "uint256"
        },
        {
          "indexed": false,
          "internalType": "string",
          "name": "first_name",
          "type": "string"
        },
        {
          "indexed": false,
          "internalType": "string",
          "name": "last_name",
          "type": "string"
        },
        {
          "indexed": false,
          "internalType": "string",
          "name": "doj",
          "type": "string"
        },
        {
          "indexed": false,
          "internalType": "address",
          "name": "_address",
          "type": "address"
        },
        {
          "indexed": false,
          "internalType": "string",
          "name": "dol",
          "type": "string"
        }
      ],
      "name": "Prisoner_Set",
      "type": "event"
    },
    {
      "anonymous": false,
      "inputs": [
        {
          "indexed": false,
          "internalType": "uint256",
          "name": "id",
          "type": "uint256"
        },
        {
          "indexed": false,
          "internalType": "string",
          "name": "first_name",
          "type": "string"
        },
        {
          "indexed": false,
          "internalType": "string",
          "name": "last_name",
          "type": "string"
        },
        {
          "indexed": false,
          "internalType": "string",
          "name": "dob",
          "type": "string"
        },
        {
          "indexed": false,
          "internalType": "address",
          "name": "_address",
          "type": "address"
        }
      ],
      "name": "Warden_Set",
      "type": "event"
    },
    {
      "anonymous": false,
      "inputs": [
        {
          "indexed": false,
          "internalType": "address",
          "name": "_address",
          "type": "address"
        },
        {
          "indexed": false,
          "internalType": "uint256",
          "name": "_oldcell",
          "type": "uint256"
        },
        {
          "indexed": false,
          "internalType": "uint256",
          "name": "_newcell",
          "type": "uint256"
        }
      ],
      "name": "prisoner_Transferred",
      "type": "event"
    },
    {
      "anonymous": false,
      "inputs": [
        {
          "indexed": false,
          "internalType": "address",
          "name": "_address",
          "type": "address"
        },
        {
          "indexed": false,
          "internalType": "uint256",
          "name": "_cell",
          "type": "uint256"
        }
      ],
      "name": "prisoner_newCell",
      "type": "event"
    },
    {
      "inputs": [
        {
          "internalType": "uint256",
          "name": "",
          "type": "uint256"
        }
      ],
      "name": "prisoners",
      "outputs": [
        {
          "internalType": "address",
          "name": "",
          "type": "address"
        }
      ],
      "stateMutability": "view",
      "type": "function"
    },
    {
      "inputs": [
        {
          "internalType": "uint256",
          "name": "",
          "type": "uint256"
        }
      ],
      "name": "wardens",
      "outputs": [
        {
          "internalType": "address",
          "name": "",
          "type": "address"
        }
      ],
      "stateMutability": "view",
      "type": "function"
    },
    {
      "inputs": [
        {
          "internalType": "uint256",
          "name": "_id",
          "type": "uint256"
        },
        {
          "internalType": "string",
          "name": "_first_name",
          "type": "string"
        },
        {
          "internalType": "string",
          "name": "_last_name",
          "type": "string"
        },
        {
          "internalType": "string",
          "name": "_dob",
          "type": "string"
        },
        {
          "internalType": "address",
          "name": "_address",
          "type": "address"
        }
      ],
      "name": "set_Warden",
      "outputs": [],
      "stateMutability": "nonpayable",
      "type": "function"
    },
    {
      "inputs": [
        {
          "internalType": "uint256",
          "name": "_id",
          "type": "uint256"
        },
        {
          "internalType": "string",
          "name": "_first_name",
          "type": "string"
        },
        {
          "internalType": "string",
          "name": "_last_name",
          "type": "string"
        },
        {
          "internalType": "string",
          "name": "_doj",
          "type": "string"
        },
        {
          "internalType": "address",
          "name": "_address",
          "type": "address"
        },
        {
          "internalType": "string",
          "name": "_dol",
          "type": "string"
        }
      ],
      "name": "set_Prisoner",
      "outputs": [],
      "stateMutability": "nonpayable",
      "type": "function"
    },
    {
      "inputs": [
        {
          "internalType": "address",
          "name": "_address",
          "type": "address"
        },
        {
          "internalType": "uint256",
          "name": "_cell",
          "type": "uint256"
        }
      ],
      "name": "set_Cell",
      "outputs": [
        {
          "internalType": "bool",
          "name": "",
          "type": "bool"
        }
      ],
      "stateMutability": "nonpayable",
      "type": "function"
    }
  ],
  "bytecode": "0x608060405234801561001057600080fd5b50336000806101000a81548173ffffffffffffffffffffffffffffffffffffffff021916908373ffffffffffffffffffffffffffffffffffffffff160217905550611244806100606000396000f3fe608060405234801561001057600080fd5b50600436106100575760003560e01c806312d53a6c1461005c5780632d34bf4d146100ca5780634894ac9c14610138578063a9733f621461034b578063e017061a146105f5575b600080fd5b6100886004803603602081101561007257600080fd5b810190808035906020019092919050505061065b565b604051808273ffffffffffffffffffffffffffffffffffffffff1673ffffffffffffffffffffffffffffffffffffffff16815260200191505060405180910390f35b6100f6600480360360208110156100e057600080fd5b8101908080359060200190929190505050610697565b604051808273ffffffffffffffffffffffffffffffffffffffff1673ffffffffffffffffffffffffffffffffffffffff16815260200191505060405180910390f35b610349600480360360a081101561014e57600080fd5b81019080803590602001909291908035906020019064010000000081111561017557600080fd5b82018360208201111561018757600080fd5b803590602001918460018302840111640100000000831117156101a957600080fd5b91908080601f016020809104026020016040519081016040528093929190818152602001838380828437600081840152601f19601f8201169050808301925050505050505091929192908035906020019064010000000081111561020c57600080fd5b82018360208201111561021e57600080fd5b8035906020019184600183028401116401000000008311171561024057600080fd5b91908080601f016020809104026020016040519081016040528093929190818152602001838380828437600081840152601f19601f820116905080830192505050505050509192919290803590602001906401000000008111156102a357600080fd5b8201836020820111156102b557600080fd5b803590602001918460018302840111640100000000831117156102d757600080fd5b91908080601f016020809104026020016040519081016040528093929190818152602001838380828437600081840152601f19601f820116905080830192505050505050509192919290803573ffffffffffffffffffffffffffffffffffffffff1690602001909291905050506106d3565b005b6105f3600480360360c081101561036157600080fd5b81019080803590602001909291908035906020019064010000000081111561038857600080fd5b82018360208201111561039a57600080fd5b803590602001918460018302840111640100000000831117156103bc57600080fd5b91908080601f016020809104026020016040519081016040528093929190818152602001838380828437600081840152601f19601f8201169050808301925050505050505091929192908035906020019064010000000081111561041f57600080fd5b82018360208201111561043157600080fd5b8035906020019184600183028401116401000000008311171561045357600080fd5b91908080601f016020809104026020016040519081016040528093929190818152602001838380828437600081840152601f19601f820116905080830192505050505050509192919290803590602001906401000000008111156104b657600080fd5b8201836020820111156104c857600080fd5b803590602001918460018302840111640100000000831117156104ea57600080fd5b91908080601f016020809104026020016040519081016040528093929190818152602001838380828437600081840152601f19601f820116905080830192505050505050509192919290803573ffffffffffffffffffffffffffffffffffffffff1690602001909291908035906020019064010000000081111561056d57600080fd5b82018360208201111561057f57600080fd5b803590602001918460018302840111640100000000831117156105a157600080fd5b91908080601f016020809104026020016040519081016040528093929190818152602001838380828437600081840152601f19601f820116905080830192505050505050509192919290505050610a2c565b005b6106416004803603604081101561060b57600080fd5b81019080803573ffffffffffffffffffffffffffffffffffffffff16906020019092919080359060200190929190505050610dcc565b604051808215151515815260200191505060405180910390f35b6002818154811061066857fe5b906000526020600020016000915054906101000a900473ffffffffffffffffffffffffffffffffffffffff1681565b600481815481106106a457fe5b906000526020600020016000915054906101000a900473ffffffffffffffffffffffffffffffffffffffff1681565b6000809054906101000a900473ffffffffffffffffffffffffffffffffffffffff1673ffffffffffffffffffffffffffffffffffffffff163373ffffffffffffffffffffffffffffffffffffffff1614610778576040517f08c379a00000000000000000000000000000000000000000000000000000000081526004018080602001828103825260278152602001806111c56027913960400191505060405180910390fd5b6000600160008373ffffffffffffffffffffffffffffffffffffffff1673ffffffffffffffffffffffffffffffffffffffff1681526020019081526020016000209050858160000181905550848160010190805190602001906107dc9291906110fd565b50838160020190805190602001906107f59291906110fd565b508281600301908051906020019061080e9291906110fd565b506002829080600181540180825580915050600190039060005260206000200160009091909190916101000a81548173ffffffffffffffffffffffffffffffffffffffff021916908373ffffffffffffffffffffffffffffffffffffffff1602179055507f26378e749e3ab3b999f8026861367f44aafb4f3ba720b080bc230a7d84522f348686868686604051808681526020018060200180602001806020018573ffffffffffffffffffffffffffffffffffffffff1673ffffffffffffffffffffffffffffffffffffffff168152602001848103845288818151815260200191508051906020019080838360005b838110156109185780820151818401526020810190506108fd565b50505050905090810190601f1680156109455780820380516001836020036101000a031916815260200191505b50848103835287818151815260200191508051906020019080838360005b8381101561097e578082015181840152602081019050610963565b50505050905090810190601f1680156109ab5780820380516001836020036101000a031916815260200191505b50848103825286818151815260200191508051906020019080838360005b838110156109e45780820151818401526020810190506109c9565b50505050905090810190601f168015610a115780820380516001836020036101000a031916815260200191505b509850505050505050505060405180910390a1505050505050565b60011515610a3933610f47565b151514610a91576040517f08c379a00000000000000000000000000000000000000000000000000000000081526004018080602001828103825260228152602001806111a36022913960400191505060405180910390fd5b6000600360008473ffffffffffffffffffffffffffffffffffffffff1673ffffffffffffffffffffffffffffffffffffffff168152602001908152602001600020905086816000018190555085816001019080519060200190610af59291906110fd565b5084816002019080519060200190610b0e9291906110fd565b5083816003019080519060200190610b279291906110fd565b5081816004019080519060200190610b409291906110fd565b506004839080600181540180825580915050600190039060005260206000200160009091909190916101000a81548173ffffffffffffffffffffffffffffffffffffffff021916908373ffffffffffffffffffffffffffffffffffffffff1602179055507fad57a52f29351f6557ff5dfca5f33fa038bb647203c312d7eb0688ac1715523a878787878787604051808781526020018060200180602001806020018673ffffffffffffffffffffffffffffffffffffffff1673ffffffffffffffffffffffffffffffffffffffff1681526020018060200185810385528a818151815260200191508051906020019080838360005b83811015610c4f578082015181840152602081019050610c34565b50505050905090810190601f168015610c7c5780820380516001836020036101000a031916815260200191505b50858103845289818151815260200191508051906020019080838360005b83811015610cb5578082015181840152602081019050610c9a565b50505050905090810190601f168015610ce25780820380516001836020036101000a031916815260200191505b50858103835288818151815260200191508051906020019080838360005b83811015610d1b578082015181840152602081019050610d00565b50505050905090810190601f168015610d485780820380516001836020036101000a031916815260200191505b50858103825286818151815260200191508051906020019080838360005b83811015610d81578082015181840152602081019050610d66565b50505050905090810190601f168015610dae5780820380516001836020036101000a031916815260200191505b509a505050505050505050505060405180910390a150505050505050565b600060011515610ddb33610f47565b151514610e33576040517f08c379a00000000000000000000000000000000000000000000000000000000081526004018080602001828103825260238152602001806111ec6023913960400191505060405180910390fd5b6000600360008573ffffffffffffffffffffffffffffffffffffffff1673ffffffffffffffffffffffffffffffffffffffff168152602001908152602001600020600501541415610f355781600360008573ffffffffffffffffffffffffffffffffffffffff1673ffffffffffffffffffffffffffffffffffffffff168152602001908152602001600020600501819055507f745af81677a0d8142530f2790dc6db26cf90b9f080b7ebdf3636c25ed4ac9d298383604051808373ffffffffffffffffffffffffffffffffffffffff1673ffffffffffffffffffffffffffffffffffffffff1681526020018281526020019250505060405180910390a1610f41565b610f3f8383610ff4565b505b92915050565b6000806000905060008090505b6002805490508163ffffffff161015610fea5760028163ffffffff1681548110610f7a57fe5b9060005260206000200160009054906101000a900473ffffffffffffffffffffffffffffffffffffffff1673ffffffffffffffffffffffffffffffffffffffff168473ffffffffffffffffffffffffffffffffffffffff161415610fdd57600191505b8080600101915050610f54565b5080915050919050565b600080600360008573ffffffffffffffffffffffffffffffffffffffff1673ffffffffffffffffffffffffffffffffffffffff16815260200190815260200160002060050154905082600360008673ffffffffffffffffffffffffffffffffffffffff1673ffffffffffffffffffffffffffffffffffffffff168152602001908152602001600020600501819055507f93e4f4bf448c1b561f857579a03b39f48af6a7a72200deb83b1f2d923a993443848285604051808473ffffffffffffffffffffffffffffffffffffffff1673ffffffffffffffffffffffffffffffffffffffff168152602001838152602001828152602001935050505060405180910390a15092915050565b828054600181600116156101000203166002900490600052602060002090601f016020900481019282601f1061113e57805160ff191683800117855561116c565b8280016001018555821561116c579182015b8281111561116b578251825591602001919060010190611150565b5b509050611179919061117d565b5090565b61119f91905b8082111561119b576000816000905550600101611183565b5090565b9056fe4f6e6c792057617264656e2063616e20416464206e657720507269736f6e657273214f6e6c792041646d696e206861732041636365737320746f20746869732046756e6374696f6e214f6e6c792057617264656e2063616e2061737369676e2063656c6c206e756d62657273a2646970667358221220cedcfe2c4b2fe0905341a050fbd3f8e7f5fd2d85dd3296e2c12a94163461777564736f6c63430006070033",
  "immutableReferences": {},
  "source": "pragma solidity 0.6.7;\n\ncontract prisonManagement {\n\taddress private admin;\n  \n\t//Modifiers\n\tmodifier onlyAdmin(){\n  \trequire(msg.sender==admin,\"Only Admin has Access to this Function!\");_;\n  }\n\n\n  //Events\n  event Warden_Set(\n  \tuint id,\n  \tstring first_name,\n  \tstring last_name,\n  \tstring dob,\n  \taddress _address);\n\n    event Prisoner_Set(\n  \tuint id,\n  \tstring first_name,\n  \tstring last_name,\n  \tstring doj,\n  \taddress _address,\n  \tstring dol);\n\n  \tevent prisoner_newCell(\n  \t\taddress _address,\n  \t\tuint _cell);\n\n  \tevent prisoner_Transferred(\n  \t\taddress _address,\n  \t\tuint _oldcell,\n  \t\tuint _newcell);\n\n  constructor() public {\n  \tadmin=msg.sender;\n  }\n\n  struct warden{\n  \tuint id;\n  \tstring first_name;\n  \tstring last_name;\n  \tstring dob;\n  }\n\n  mapping (address => warden) Warden;\n  address[] public wardens;\n\n  struct prisoner{\n  \tuint id;\n  \tstring first_name;\n  \tstring last_name;\n  \tstring doj;\n  \tstring dol;\n  \tuint cell;\n  }\n\n  mapping (address => prisoner) Prisoner;\n  address[] public prisoners;\n\n  function set_Warden(uint _id, string memory _first_name, string memory _last_name, string memory _dob, address _address) public onlyAdmin() {\n  \twarden storage Person = Warden[_address];\n  \tPerson.id=_id;\n  \tPerson.first_name=_first_name;\n  \tPerson.last_name=_last_name;\n  \tPerson.dob=_dob;\n  \twardens.push(_address);\n  \temit Warden_Set(_id,_first_name,_last_name,_dob,_address);\n  }\n\n  function set_Prisoner(uint _id, string memory _first_name, string memory _last_name,string memory _doj, address _address,string memory _dol) public {\n  \trequire(checkWarden(msg.sender)==true,\"Only Warden can Add new Prisoners!\");\n  \tprisoner storage Person = Prisoner[_address];\n  \tPerson.id=_id;\n  \tPerson.first_name=_first_name;\n  \tPerson.last_name=_last_name;\n  \tPerson.doj=_doj;\n  \tPerson.dol=_dol;\n  \tprisoners.push(_address);\n  \temit Prisoner_Set(_id,_first_name,_last_name,_doj,_address,_dol);\n  }\n\n  function checkWarden(address _address) private view returns(bool){\n        bool c=false;\n        for(uint32 i=0;i<wardens.length;i++){\n            if(_address==wardens[i])\n              c=true;\n        }\n        return(c);\n    }\n\n  function set_Cell(address _address,uint _cell) public returns(bool){\n  \trequire(checkWarden(msg.sender)==true,\"Only Warden can assign cell numbers\");\n  \tif(Prisoner[_address].cell==0){\n  \t\tPrisoner[_address].cell=_cell;\n  \t\temit prisoner_newCell(_address,_cell);\n  \t} else {\n  \t\tprisoner_Transfer(_address,_cell);\n  \t}\n\n  }\n\n  function prisoner_Transfer(address _address,uint _newcell) private returns(bool){\n  \tuint oldcell;\n  \toldcell = Prisoner[_address].cell;\n  \tPrisoner[_address].cell=_newcell;\n  \temit prisoner_Transferred(_address,oldcell,_newcell);\n  }\n}\n",
  "sourcePath": "C:\\Users\\Aaryamann\\Desktop\\prisonManagement\\contracts\\prisonManagement.sol",
  "compiler": {
    "name": "solc",
    "version": "0.6.7+commit.b8d736ae.Emscripten.clang"
  },
  "schemaVersion": "3.1.0",
  "updatedAt": "2020-05-25T05:23:21.202Z",
  "devdoc": {
    "methods": {}
  },
  "userdoc": {
    "methods": {}
  }
}