{
  "contractName": "prisonManagement",
  "abi": [
    {
      "inputs": [],
      "stateMutability": "nonpayable",
      "type": "constructor"
    },
    {
      "anonymous": false,
      "inputs": [
        {
          "indexed": false,
          "internalType": "uint256",
          "name": "id",
          "type": "uint256"
        },
        {
          "indexed": false,
          "internalType": "string",
          "name": "name",
          "type": "string"
        },
        {
          "indexed": false,
          "internalType": "string",
          "name": "jobs",
          "type": "string"
        },
        {
          "indexed": false,
          "internalType": "address",
          "name": "_address",
          "type": "address"
        }
      ],
      "name": "JobProvider_Set",
      "type": "event"
    },
    {
      "anonymous": false,
      "inputs": [
        {
          "indexed": false,
          "internalType": "string",
          "name": "jobs",
          "type": "string"
        }
      ],
      "name": "Jobs_Updated",
      "type": "event"
    },
    {
      "anonymous": false,
      "inputs": [
        {
          "indexed": false,
          "internalType": "uint256",
          "name": "id",
          "type": "uint256"
        },
        {
          "indexed": false,
          "internalType": "string",
          "name": "first_name",
          "type": "string"
        },
        {
          "indexed": false,
          "internalType": "string",
          "name": "last_name",
          "type": "string"
        },
        {
          "indexed": false,
          "internalType": "string",
          "name": "doj",
          "type": "string"
        },
        {
          "indexed": false,
          "internalType": "address",
          "name": "_address",
          "type": "address"
        },
        {
          "indexed": false,
          "internalType": "string",
          "name": "dol",
          "type": "string"
        },
        {
          "indexed": false,
          "internalType": "string",
          "name": "belongings",
          "type": "string"
        },
        {
          "indexed": false,
          "internalType": "string",
          "name": "medicalhistory",
          "type": "string"
        }
      ],
      "name": "Prisoner_Set",
      "type": "event"
    },
    {
      "anonymous": false,
      "inputs": [
        {
          "indexed": false,
          "internalType": "string",
          "name": "name",
          "type": "string"
        },
        {
          "indexed": false,
          "internalType": "string",
          "name": "job",
          "type": "string"
        }
      ],
      "name": "Prisoner_newJob",
      "type": "event"
    },
    {
      "anonymous": false,
      "inputs": [
        {
          "indexed": false,
          "internalType": "uint256",
          "name": "id",
          "type": "uint256"
        },
        {
          "indexed": false,
          "internalType": "string",
          "name": "first_name",
          "type": "string"
        },
        {
          "indexed": false,
          "internalType": "string",
          "name": "last_name",
          "type": "string"
        },
        {
          "indexed": false,
          "internalType": "string",
          "name": "dob",
          "type": "string"
        },
        {
          "indexed": false,
          "internalType": "address",
          "name": "_address",
          "type": "address"
        }
      ],
      "name": "Warden_Set",
      "type": "event"
    },
    {
      "anonymous": false,
      "inputs": [
        {
          "indexed": false,
          "internalType": "string",
          "name": "name",
          "type": "string"
        },
        {
          "indexed": false,
          "internalType": "address",
          "name": "_address",
          "type": "address"
        }
      ],
      "name": "new_Security",
      "type": "event"
    },
    {
      "anonymous": false,
      "inputs": [
        {
          "indexed": false,
          "internalType": "address",
          "name": "_address",
          "type": "address"
        },
        {
          "indexed": false,
          "internalType": "uint256",
          "name": "_oldcell",
          "type": "uint256"
        },
        {
          "indexed": false,
          "internalType": "uint256",
          "name": "_newcell",
          "type": "uint256"
        }
      ],
      "name": "prisoner_Transferred",
      "type": "event"
    },
    {
      "anonymous": false,
      "inputs": [
        {
          "indexed": false,
          "internalType": "address",
          "name": "_address",
          "type": "address"
        },
        {
          "indexed": false,
          "internalType": "uint256",
          "name": "_cell",
          "type": "uint256"
        }
      ],
      "name": "prisoner_newCell",
      "type": "event"
    },
    {
      "anonymous": false,
      "inputs": [
        {
          "indexed": false,
          "internalType": "string",
          "name": "name",
          "type": "string"
        },
        {
          "indexed": false,
          "internalType": "string",
          "name": "oldassignment",
          "type": "string"
        },
        {
          "indexed": false,
          "internalType": "string",
          "name": "newassignment",
          "type": "string"
        }
      ],
      "name": "security_changedAssignment",
      "type": "event"
    },
    {
      "anonymous": false,
      "inputs": [
        {
          "indexed": false,
          "internalType": "string",
          "name": "name",
          "type": "string"
        },
        {
          "indexed": false,
          "internalType": "string",
          "name": "assignment",
          "type": "string"
        }
      ],
      "name": "security_newAssignment",
      "type": "event"
    },
    {
      "inputs": [
        {
          "internalType": "address",
          "name": "",
          "type": "address"
        }
      ],
      "name": "JobProvider",
      "outputs": [
        {
          "internalType": "uint256",
          "name": "id",
          "type": "uint256"
        },
        {
          "internalType": "string",
          "name": "name",
          "type": "string"
        },
        {
          "internalType": "string",
          "name": "jobs",
          "type": "string"
        }
      ],
      "stateMutability": "view",
      "type": "function"
    },
    {
      "inputs": [
        {
          "internalType": "address",
          "name": "",
          "type": "address"
        }
      ],
      "name": "Prisoner",
      "outputs": [
        {
          "internalType": "uint256",
          "name": "id",
          "type": "uint256"
        },
        {
          "internalType": "string",
          "name": "first_name",
          "type": "string"
        },
        {
          "internalType": "string",
          "name": "last_name",
          "type": "string"
        },
        {
          "internalType": "string",
          "name": "doj",
          "type": "string"
        },
        {
          "internalType": "string",
          "name": "dol",
          "type": "string"
        },
        {
          "internalType": "uint256",
          "name": "cell",
          "type": "uint256"
        },
        {
          "internalType": "string",
          "name": "belongings",
          "type": "string"
        },
        {
          "internalType": "string",
          "name": "medical",
          "type": "string"
        }
      ],
      "stateMutability": "view",
      "type": "function"
    },
    {
      "inputs": [
        {
          "internalType": "address",
          "name": "",
          "type": "address"
        }
      ],
      "name": "WorkingPrisoner",
      "outputs": [
        {
          "internalType": "string",
          "name": "work",
          "type": "string"
        }
      ],
      "stateMutability": "view",
      "type": "function"
    },
    {
      "inputs": [
        {
          "internalType": "uint256",
          "name": "",
          "type": "uint256"
        }
      ],
      "name": "prisoners",
      "outputs": [
        {
          "internalType": "address",
          "name": "",
          "type": "address"
        }
      ],
      "stateMutability": "view",
      "type": "function"
    },
    {
      "inputs": [
        {
          "internalType": "address",
          "name": "",
          "type": "address"
        }
      ],
      "name": "security",
      "outputs": [
        {
          "internalType": "uint256",
          "name": "id",
          "type": "uint256"
        },
        {
          "internalType": "string",
          "name": "name",
          "type": "string"
        },
        {
          "internalType": "string",
          "name": "assignment",
          "type": "string"
        }
      ],
      "stateMutability": "view",
      "type": "function"
    },
    {
      "inputs": [
        {
          "internalType": "uint256",
          "name": "",
          "type": "uint256"
        }
      ],
      "name": "wardens",
      "outputs": [
        {
          "internalType": "address",
          "name": "",
          "type": "address"
        }
      ],
      "stateMutability": "view",
      "type": "function"
    },
    {
      "inputs": [
        {
          "internalType": "uint256",
          "name": "_id",
          "type": "uint256"
        },
        {
          "internalType": "string",
          "name": "_first_name",
          "type": "string"
        },
        {
          "internalType": "string",
          "name": "_last_name",
          "type": "string"
        },
        {
          "internalType": "string",
          "name": "_dob",
          "type": "string"
        },
        {
          "internalType": "address",
          "name": "_address",
          "type": "address"
        }
      ],
      "name": "set_Warden",
      "outputs": [],
      "stateMutability": "nonpayable",
      "type": "function"
    },
    {
      "inputs": [
        {
          "internalType": "uint256",
          "name": "_id",
          "type": "uint256"
        },
        {
          "internalType": "string",
          "name": "_first_name",
          "type": "string"
        },
        {
          "internalType": "string",
          "name": "_last_name",
          "type": "string"
        },
        {
          "internalType": "string",
          "name": "_doj",
          "type": "string"
        },
        {
          "internalType": "address",
          "name": "_address",
          "type": "address"
        },
        {
          "internalType": "string",
          "name": "_dol",
          "type": "string"
        },
        {
          "internalType": "string",
          "name": "_belongings",
          "type": "string"
        },
        {
          "internalType": "string",
          "name": "_medical",
          "type": "string"
        }
      ],
      "name": "set_Prisoner",
      "outputs": [],
      "stateMutability": "nonpayable",
      "type": "function"
    },
    {
      "inputs": [
        {
          "internalType": "uint256",
          "name": "_id",
          "type": "uint256"
        },
        {
          "internalType": "string",
          "name": "_name",
          "type": "string"
        },
        {
          "internalType": "string",
          "name": "_jobs",
          "type": "string"
        },
        {
          "internalType": "address",
          "name": "_address",
          "type": "address"
        }
      ],
      "name": "set_JobProvider",
      "outputs": [],
      "stateMutability": "nonpayable",
      "type": "function"
    },
    {
      "inputs": [
        {
          "internalType": "string",
          "name": "_jobs",
          "type": "string"
        }
      ],
      "name": "update_Jobs",
      "outputs": [],
      "stateMutability": "nonpayable",
      "type": "function"
    },
    {
      "inputs": [
        {
          "internalType": "string",
          "name": "_jobwork",
          "type": "string"
        },
        {
          "internalType": "address",
          "name": "_address",
          "type": "address"
        }
      ],
      "name": "set_Work",
      "outputs": [],
      "stateMutability": "nonpayable",
      "type": "function"
    },
    {
      "inputs": [
        {
          "internalType": "uint256",
          "name": "_id",
          "type": "uint256"
        },
        {
          "internalType": "string",
          "name": "_name",
          "type": "string"
        },
        {
          "internalType": "address",
          "name": "_address",
          "type": "address"
        }
      ],
      "name": "set_Security",
      "outputs": [],
      "stateMutability": "nonpayable",
      "type": "function"
    },
    {
      "inputs": [
        {
          "internalType": "address",
          "name": "_address",
          "type": "address"
        },
        {
          "internalType": "string",
          "name": "_assignment",
          "type": "string"
        }
      ],
      "name": "set_AssignmentSecurity",
      "outputs": [],
      "stateMutability": "nonpayable",
      "type": "function"
    },
    {
      "inputs": [
        {
          "internalType": "address",
          "name": "_address",
          "type": "address"
        },
        {
          "internalType": "uint256",
          "name": "_cell",
          "type": "uint256"
        }
      ],
      "name": "set_Cell",
      "outputs": [
        {
          "internalType": "bool",
          "name": "",
          "type": "bool"
        }
      ],
      "stateMutability": "nonpayable",
      "type": "function"
    }
  ],
  "bytecode": "0x608060405234801561001057600080fd5b50336000806101000a81548173ffffffffffffffffffffffffffffffffffffffff021916908373ffffffffffffffffffffffffffffffffffffffff160217905550613e4c806100606000396000f3fe608060405234801561001057600080fd5b50600436106100ea5760003560e01c806355f543da1161008c5780639cf153da116100665780639cf153da14610d12578063e017061a14610dcf578063f958002e14610e35578063fc5380f71461120e576100ea565b806355f543da14610820578063634e8dad146108fb578063659b543514610be2576100ea565b806321484f29116100c857806321484f29146103945780632d34bf4d146104c45780634894ac9c146105325780634baef3a814610745576100ea565b80630277be69146100ef57806312d53a6c146101aa5780631f822a4714610218575b600080fd5b6101a86004803603602081101561010557600080fd5b810190808035906020019064010000000081111561012257600080fd5b82018360208201111561013457600080fd5b8035906020019184600183028401116401000000008311171561015657600080fd5b91908080601f016020809104026020016040519081016040528093929190818152602001838380828437600081840152601f19601f8201169050808301925050505050505091929192905050506112f3565b005b6101d6600480360360208110156101c057600080fd5b81019080803590602001909291905050506115e2565b604051808273ffffffffffffffffffffffffffffffffffffffff1673ffffffffffffffffffffffffffffffffffffffff16815260200191505060405180910390f35b6103926004803603608081101561022e57600080fd5b81019080803590602001909291908035906020019064010000000081111561025557600080fd5b82018360208201111561026757600080fd5b8035906020019184600183028401116401000000008311171561028957600080fd5b91908080601f016020809104026020016040519081016040528093929190818152602001838380828437600081840152601f19601f820116905080830192505050505050509192919290803590602001906401000000008111156102ec57600080fd5b8201836020820111156102fe57600080fd5b8035906020019184600183028401116401000000008311171561032057600080fd5b91908080601f016020809104026020016040519081016040528093929190818152602001838380828437600081840152601f19601f820116905080830192505050505050509192919290803573ffffffffffffffffffffffffffffffffffffffff16906020019092919050505061161e565b005b6103d6600480360360208110156103aa57600080fd5b81019080803573ffffffffffffffffffffffffffffffffffffffff16906020019092919050505061184d565b604051808481526020018060200180602001838103835285818151815260200191508051906020019080838360005b83811015610420578082015181840152602081019050610405565b50505050905090810190601f16801561044d5780820380516001836020036101000a031916815260200191505b50838103825284818151815260200191508051906020019080838360005b8381101561048657808201518184015260208101905061046b565b50505050905090810190601f1680156104b35780820380516001836020036101000a031916815260200191505b509550505050505060405180910390f35b6104f0600480360360208110156104da57600080fd5b81019080803590602001909291905050506119a7565b604051808273ffffffffffffffffffffffffffffffffffffffff1673ffffffffffffffffffffffffffffffffffffffff16815260200191505060405180910390f35b610743600480360360a081101561054857600080fd5b81019080803590602001909291908035906020019064010000000081111561056f57600080fd5b82018360208201111561058157600080fd5b803590602001918460018302840111640100000000831117156105a357600080fd5b91908080601f016020809104026020016040519081016040528093929190818152602001838380828437600081840152601f19601f8201169050808301925050505050505091929192908035906020019064010000000081111561060657600080fd5b82018360208201111561061857600080fd5b8035906020019184600183028401116401000000008311171561063a57600080fd5b91908080601f016020809104026020016040519081016040528093929190818152602001838380828437600081840152601f19601f8201169050808301925050505050505091929192908035906020019064010000000081111561069d57600080fd5b8201836020820111156106af57600080fd5b803590602001918460018302840111640100000000831117156106d157600080fd5b91908080601f016020809104026020016040519081016040528093929190818152602001838380828437600081840152601f19601f820116905080830192505050505050509192919290803573ffffffffffffffffffffffffffffffffffffffff1690602001909291905050506119e3565b005b61081e6004803603604081101561075b57600080fd5b81019080803573ffffffffffffffffffffffffffffffffffffffff1690602001909291908035906020019064010000000081111561079857600080fd5b8201836020820111156107aa57600080fd5b803590602001918460018302840111640100000000831117156107cc57600080fd5b91908080601f016020809104026020016040519081016040528093929190818152602001838380828437600081840152601f19601f820116905080830192505050505050509192919290505050611d3c565b005b6108f96004803603604081101561083657600080fd5b810190808035906020019064010000000081111561085357600080fd5b82018360208201111561086557600080fd5b8035906020019184600183028401116401000000008311171561088757600080fd5b91908080601f016020809104026020016040519081016040528093929190818152602001838380828437600081840152601f19601f820116905080830192505050505050509192919290803573ffffffffffffffffffffffffffffffffffffffff16906020019092919050505061224e565b005b61093d6004803603602081101561091157600080fd5b81019080803573ffffffffffffffffffffffffffffffffffffffff169060200190929190505050612691565b6040518089815260200180602001806020018060200180602001888152602001806020018060200187810387528e818151815260200191508051906020019080838360005b8381101561099d578082015181840152602081019050610982565b50505050905090810190601f1680156109ca5780820380516001836020036101000a031916815260200191505b5087810386528d818151815260200191508051906020019080838360005b83811015610a035780820151818401526020810190506109e8565b50505050905090810190601f168015610a305780820380516001836020036101000a031916815260200191505b5087810385528c818151815260200191508051906020019080838360005b83811015610a69578082015181840152602081019050610a4e565b50505050905090810190601f168015610a965780820380516001836020036101000a031916815260200191505b5087810384528b818151815260200191508051906020019080838360005b83811015610acf578082015181840152602081019050610ab4565b50505050905090810190601f168015610afc5780820380516001836020036101000a031916815260200191505b50878103835289818151815260200191508051906020019080838360005b83811015610b35578082015181840152602081019050610b1a565b50505050905090810190601f168015610b625780820380516001836020036101000a031916815260200191505b50878103825288818151815260200191508051906020019080838360005b83811015610b9b578082015181840152602081019050610b80565b50505050905090810190601f168015610bc85780820380516001836020036101000a031916815260200191505b509e50505050505050505050505050505060405180910390f35b610c2460048036036020811015610bf857600080fd5b81019080803573ffffffffffffffffffffffffffffffffffffffff169060200190929190505050612a69565b604051808481526020018060200180602001838103835285818151815260200191508051906020019080838360005b83811015610c6e578082015181840152602081019050610c53565b50505050905090810190601f168015610c9b5780820380516001836020036101000a031916815260200191505b50838103825284818151815260200191508051906020019080838360005b83811015610cd4578082015181840152602081019050610cb9565b50505050905090810190601f168015610d015780820380516001836020036101000a031916815260200191505b509550505050505060405180910390f35b610d5460048036036020811015610d2857600080fd5b81019080803573ffffffffffffffffffffffffffffffffffffffff169060200190929190505050612bc3565b6040518080602001828103825283818151815260200191508051906020019080838360005b83811015610d94578082015181840152602081019050610d79565b50505050905090810190601f168015610dc15780820380516001836020036101000a031916815260200191505b509250505060405180910390f35b610e1b60048036036040811015610de557600080fd5b81019080803573ffffffffffffffffffffffffffffffffffffffff16906020019092919080359060200190929190505050612c79565b604051808215151515815260200191505060405180910390f35b61120c6004803603610100811015610e4c57600080fd5b810190808035906020019092919080359060200190640100000000811115610e7357600080fd5b820183602082011115610e8557600080fd5b80359060200191846001830284011164010000000083111715610ea757600080fd5b91908080601f016020809104026020016040519081016040528093929190818152602001838380828437600081840152601f19601f82011690508083019250505050505050919291929080359060200190640100000000811115610f0a57600080fd5b820183602082011115610f1c57600080fd5b80359060200191846001830284011164010000000083111715610f3e57600080fd5b91908080601f016020809104026020016040519081016040528093929190818152602001838380828437600081840152601f19601f82011690508083019250505050505050919291929080359060200190640100000000811115610fa157600080fd5b820183602082011115610fb357600080fd5b80359060200191846001830284011164010000000083111715610fd557600080fd5b91908080601f016020809104026020016040519081016040528093929190818152602001838380828437600081840152601f19601f820116905080830192505050505050509192919290803573ffffffffffffffffffffffffffffffffffffffff1690602001909291908035906020019064010000000081111561105857600080fd5b82018360208201111561106a57600080fd5b8035906020019184600183028401116401000000008311171561108c57600080fd5b91908080601f016020809104026020016040519081016040528093929190818152602001838380828437600081840152601f19601f820116905080830192505050505050509192919290803590602001906401000000008111156110ef57600080fd5b82018360208201111561110157600080fd5b8035906020019184600183028401116401000000008311171561112357600080fd5b91908080601f016020809104026020016040519081016040528093929190818152602001838380828437600081840152601f19601f8201169050808301925050505050505091929192908035906020019064010000000081111561118657600080fd5b82018360208201111561119857600080fd5b803590602001918460018302840111640100000000831117156111ba57600080fd5b91908080601f016020809104026020016040519081016040528093929190818152602001838380828437600081840152601f19601f820116905080830192505050505050509192919290505050612f2d565b005b6112f16004803603606081101561122457600080fd5b81019080803590602001909291908035906020019064010000000081111561124b57600080fd5b82018360208201111561125d57600080fd5b8035906020019184600183028401116401000000008311171561127f57600080fd5b91908080601f016020809104026020016040519081016040528093929190818152602001838380828437600081840152601f19601f820116905080830192505050505050509192919290803573ffffffffffffffffffffffffffffffffffffffff1690602001909291905050506133db565b005b6000600560003373ffffffffffffffffffffffffffffffffffffffff1673ffffffffffffffffffffffffffffffffffffffff16815260200190815260200160002060000154141561138f576040517f08c379a000000000000000000000000000000000000000000000000000000000815260040180806020018281038252602b815260200180613d80602b913960400191505060405180910390fd5b60001515611477600560003373ffffffffffffffffffffffffffffffffffffffff1673ffffffffffffffffffffffffffffffffffffffff1681526020019081526020016000206002018054600181600116156101000203166002900480601f01602080910402602001604051908101604052809291908181526020018280546001816001161561010002031660029004801561146c5780601f106114415761010080835404028352916020019161146c565b820191906000526020600020905b81548152906001019060200180831161144f57829003601f168201915b5050505050836135fd565b1515146114ec576040517f08c379a00000000000000000000000000000000000000000000000000000000081526004018080602001828103825260128152602001807f557064617465206d757374206265206d6574000000000000000000000000000081525060200191505060405180910390fd5b80600560003373ffffffffffffffffffffffffffffffffffffffff1673ffffffffffffffffffffffffffffffffffffffff1681526020019081526020016000206002019080519060200190611542929190613c6e565b507f9e33f5b213dab3748e6badb97ca4baf250657a625b4fb560801e50003e9ec005816040518080602001828103825283818151815260200191508051906020019080838360005b838110156115a557808201518184015260208101905061158a565b50505050905090810190601f1680156115d25780820380516001836020036101000a031916815260200191505b509250505060405180910390a150565b600281815481106115ef57fe5b906000526020600020016000915054906101000a900473ffffffffffffffffffffffffffffffffffffffff1681565b6001151561162b336136ff565b151514611683576040517f08c379a0000000000000000000000000000000000000000000000000000000008152600401808060200182810382526025815260200180613d366025913960400191505060405180910390fd5b6000600560008373ffffffffffffffffffffffffffffffffffffffff1673ffffffffffffffffffffffffffffffffffffffff1681526020019081526020016000209050848160000181905550838160010190805190602001906116e7929190613c6e565b5082816002019080519060200190611700929190613c6e565b507fee0a9fcdeb399f439d300266235b31f90456a4d6fd4582d23bd3ad0d974eedfe858585856040518085815260200180602001806020018473ffffffffffffffffffffffffffffffffffffffff1673ffffffffffffffffffffffffffffffffffffffff168152602001838103835286818151815260200191508051906020019080838360005b838110156117a2578082015181840152602081019050611787565b50505050905090810190601f1680156117cf5780820380516001836020036101000a031916815260200191505b50838103825285818151815260200191508051906020019080838360005b838110156118085780820151818401526020810190506117ed565b50505050905090810190601f1680156118355780820380516001836020036101000a031916815260200191505b50965050505050505060405180910390a15050505050565b6003602052806000526040600020600091509050806000015490806001018054600181600116156101000203166002900480601f0160208091040260200160405190810160405280929190818152602001828054600181600116156101000203166002900480156118ff5780601f106118d4576101008083540402835291602001916118ff565b820191906000526020600020905b8154815290600101906020018083116118e257829003601f168201915b505050505090806002018054600181600116156101000203166002900480601f01602080910402602001604051908101604052809291908181526020018280546001816001161561010002031660029004801561199d5780601f106119725761010080835404028352916020019161199d565b820191906000526020600020905b81548152906001019060200180831161198057829003601f168201915b5050505050905083565b600781815481106119b457fe5b906000526020600020016000915054906101000a900473ffffffffffffffffffffffffffffffffffffffff1681565b6000809054906101000a900473ffffffffffffffffffffffffffffffffffffffff1673ffffffffffffffffffffffffffffffffffffffff163373ffffffffffffffffffffffffffffffffffffffff1614611a88576040517f08c379a0000000000000000000000000000000000000000000000000000000008152600401808060200182810382526027815260200180613dcd6027913960400191505060405180910390fd5b6000600160008373ffffffffffffffffffffffffffffffffffffffff1673ffffffffffffffffffffffffffffffffffffffff168152602001908152602001600020905085816000018190555084816001019080519060200190611aec929190613c6e565b5083816002019080519060200190611b05929190613c6e565b5082816003019080519060200190611b1e929190613c6e565b506002829080600181540180825580915050600190039060005260206000200160009091909190916101000a81548173ffffffffffffffffffffffffffffffffffffffff021916908373ffffffffffffffffffffffffffffffffffffffff1602179055507f26378e749e3ab3b999f8026861367f44aafb4f3ba720b080bc230a7d84522f348686868686604051808681526020018060200180602001806020018573ffffffffffffffffffffffffffffffffffffffff1673ffffffffffffffffffffffffffffffffffffffff168152602001848103845288818151815260200191508051906020019080838360005b83811015611c28578082015181840152602081019050611c0d565b50505050905090810190601f168015611c555780820380516001836020036101000a031916815260200191505b50848103835287818151815260200191508051906020019080838360005b83811015611c8e578082015181840152602081019050611c73565b50505050905090810190601f168015611cbb5780820380516001836020036101000a031916815260200191505b50848103825286818151815260200191508051906020019080838360005b83811015611cf4578082015181840152602081019050611cd9565b50505050905090810190601f168015611d215780820380516001836020036101000a031916815260200191505b509850505050505050505060405180910390a1505050505050565b60011515611d49336136ff565b151514611da1576040517f08c379a0000000000000000000000000000000000000000000000000000000008152600401808060200182810382526023815260200180613df46023913960400191505060405180910390fd5b6000600360008473ffffffffffffffffffffffffffffffffffffffff1673ffffffffffffffffffffffffffffffffffffffff168152602001908152602001600020600001541415611e3d576040517f08c379a0000000000000000000000000000000000000000000000000000000008152600401808060200182810382526022815260200180613d146022913960400191505060405180910390fd5b60011515611f34600360008573ffffffffffffffffffffffffffffffffffffffff1673ffffffffffffffffffffffffffffffffffffffff1681526020019081526020016000206002018054600181600116156101000203166002900480601f016020809104026020016040519081016040528092919081815260200182805460018160011615610100020316600290048015611f1a5780601f10611eef57610100808354040283529160200191611f1a565b820191906000526020600020905b815481529060010190602001808311611efd57829003601f168201915b5050505050604051806020016040528060008152506135fd565b151514156120ff5780600360008473ffffffffffffffffffffffffffffffffffffffff1673ffffffffffffffffffffffffffffffffffffffff1681526020019081526020016000206002019080519060200190611f92929190613c6e565b507fb6f70d0d99b9796a919af0868c55b4c19502f7e67d1b35154b8a110acedf8c72600360008473ffffffffffffffffffffffffffffffffffffffff1673ffffffffffffffffffffffffffffffffffffffff168152602001908152602001600020600101826040518080602001806020018381038352858181546001816001161561010002031660029004815260200191508054600181600116156101000203166002900480156120845780601f1061205957610100808354040283529160200191612084565b820191906000526020600020905b81548152906001019060200180831161206757829003601f168201915b5050838103825284818151815260200191508051906020019080838360005b838110156120be5780820151818401526020810190506120a3565b50505050905090810190601f1680156120eb5780820380516001836020036101000a031916815260200191505b5094505050505060405180910390a161224a565b600015156121e7600360008573ffffffffffffffffffffffffffffffffffffffff1673ffffffffffffffffffffffffffffffffffffffff1681526020019081526020016000206002018054600181600116156101000203166002900480601f0160208091040260200160405190810160405280929190818152602001828054600181600116156101000203166002900480156121dc5780601f106121b1576101008083540402835291602001916121dc565b820191906000526020600020905b8154815290600101906020018083116121bf57829003601f168201915b5050505050836135fd565b15151461223f576040517f08c379a0000000000000000000000000000000000000000000000000000000008152600401808060200182810382526025815260200180613d5b6025913960400191505060405180910390fd5b61224982826137ac565b5b5050565b6000600560003373ffffffffffffffffffffffffffffffffffffffff1673ffffffffffffffffffffffffffffffffffffffff1681526020019081526020016000206000015414156122ea576040517f08c379a000000000000000000000000000000000000000000000000000000000815260040180806020018281038252602b815260200180613d80602b913960400191505060405180910390fd5b600015156123d2600460008473ffffffffffffffffffffffffffffffffffffffff1673ffffffffffffffffffffffffffffffffffffffff1681526020019081526020016000206000018054600181600116156101000203166002900480601f0160208091040260200160405190810160405280929190818152602001828054600181600116156101000203166002900480156123c75780601f1061239c576101008083540402835291602001916123c7565b820191906000526020600020905b8154815290600101906020018083116123aa57829003601f168201915b5050505050846135fd565b151514612447576040517f08c379a00000000000000000000000000000000000000000000000000000000081526004018080602001828103825260128152602001807f557064617465206d757374206265206d6574000000000000000000000000000081525060200191505060405180910390fd5b6001151561245482613abb565b1515146124c9576040517f08c379a000000000000000000000000000000000000000000000000000000000815260040180806020018281038252601d8152602001807f4f6e6c7920507269736f6e6572732063616e2068617665204a6f62732100000081525060200191505060405180910390fd5b6000600460008373ffffffffffffffffffffffffffffffffffffffff1673ffffffffffffffffffffffffffffffffffffffff168152602001908152602001600020905082816000019080519060200190612524929190613c6e565b507fde498ecec6db88d3df573139e1401a5607691012d649bea46be2a7b0edb77a78600660008473ffffffffffffffffffffffffffffffffffffffff1673ffffffffffffffffffffffffffffffffffffffff168152602001908152602001600020600101846040518080602001806020018381038352858181546001816001161561010002031660029004815260200191508054600181600116156101000203166002900480156126165780601f106125eb57610100808354040283529160200191612616565b820191906000526020600020905b8154815290600101906020018083116125f957829003601f168201915b5050838103825284818151815260200191508051906020019080838360005b83811015612650578082015181840152602081019050612635565b50505050905090810190601f16801561267d5780820380516001836020036101000a031916815260200191505b5094505050505060405180910390a1505050565b6006602052806000526040600020600091509050806000015490806001018054600181600116156101000203166002900480601f0160208091040260200160405190810160405280929190818152602001828054600181600116156101000203166002900480156127435780601f1061271857610100808354040283529160200191612743565b820191906000526020600020905b81548152906001019060200180831161272657829003601f168201915b505050505090806002018054600181600116156101000203166002900480601f0160208091040260200160405190810160405280929190818152602001828054600181600116156101000203166002900480156127e15780601f106127b6576101008083540402835291602001916127e1565b820191906000526020600020905b8154815290600101906020018083116127c457829003601f168201915b505050505090806003018054600181600116156101000203166002900480601f01602080910402602001604051908101604052809291908181526020018280546001816001161561010002031660029004801561287f5780601f106128545761010080835404028352916020019161287f565b820191906000526020600020905b81548152906001019060200180831161286257829003601f168201915b505050505090806004018054600181600116156101000203166002900480601f01602080910402602001604051908101604052809291908181526020018280546001816001161561010002031660029004801561291d5780601f106128f25761010080835404028352916020019161291d565b820191906000526020600020905b81548152906001019060200180831161290057829003601f168201915b505050505090806005015490806006018054600181600116156101000203166002900480601f0160208091040260200160405190810160405280929190818152602001828054600181600116156101000203166002900480156129c15780601f10612996576101008083540402835291602001916129c1565b820191906000526020600020905b8154815290600101906020018083116129a457829003601f168201915b505050505090806007018054600181600116156101000203166002900480601f016020809104026020016040519081016040528092919081815260200182805460018160011615610100020316600290048015612a5f5780601f10612a3457610100808354040283529160200191612a5f565b820191906000526020600020905b815481529060010190602001808311612a4257829003601f168201915b5050505050905088565b6005602052806000526040600020600091509050806000015490806001018054600181600116156101000203166002900480601f016020809104026020016040519081016040528092919081815260200182805460018160011615610100020316600290048015612b1b5780601f10612af057610100808354040283529160200191612b1b565b820191906000526020600020905b815481529060010190602001808311612afe57829003601f168201915b505050505090806002018054600181600116156101000203166002900480601f016020809104026020016040519081016040528092919081815260200182805460018160011615610100020316600290048015612bb95780601f10612b8e57610100808354040283529160200191612bb9565b820191906000526020600020905b815481529060010190602001808311612b9c57829003601f168201915b5050505050905083565b6004602052806000526040600020600091509050806000018054600181600116156101000203166002900480601f016020809104026020016040519081016040528092919081815260200182805460018160011615610100020316600290048015612c6f5780601f10612c4457610100808354040283529160200191612c6f565b820191906000526020600020905b815481529060010190602001808311612c5257829003601f168201915b5050505050905081565b600060011515612c88336136ff565b151514612ce0576040517f08c379a0000000000000000000000000000000000000000000000000000000008152600401808060200182810382526023815260200180613df46023913960400191505060405180910390fd5b60011515612ced84613abb565b151514612d62576040517f08c379a000000000000000000000000000000000000000000000000000000000815260040180806020018281038252601e8152602001807f4f6e6c7920507269736f6e6572732063616e20626520696e2043656c6c73000081525060200191505060405180910390fd5b6000600660008573ffffffffffffffffffffffffffffffffffffffff1673ffffffffffffffffffffffffffffffffffffffff168152602001908152602001600020600501541415612e645781600660008573ffffffffffffffffffffffffffffffffffffffff1673ffffffffffffffffffffffffffffffffffffffff168152602001908152602001600020600501819055507f745af81677a0d8142530f2790dc6db26cf90b9f080b7ebdf3636c25ed4ac9d298383604051808373ffffffffffffffffffffffffffffffffffffffff1673ffffffffffffffffffffffffffffffffffffffff1681526020018281526020019250505060405180910390a1612f27565b81600660008573ffffffffffffffffffffffffffffffffffffffff1673ffffffffffffffffffffffffffffffffffffffff168152602001908152602001600020600501541415612f1c576040517f08c379a00000000000000000000000000000000000000000000000000000000081526004018080602001828103825260208152602001807f4f6c6420616e64204e65772043656c6c2063616e6e6f742062652053616d652181525060200191505060405180910390fd5b612f268383613b68565b5b92915050565b60011515612f3a336136ff565b151514612f92576040517f08c379a0000000000000000000000000000000000000000000000000000000008152600401808060200182810382526022815260200180613dab6022913960400191505060405180910390fd5b6000600660008673ffffffffffffffffffffffffffffffffffffffff1673ffffffffffffffffffffffffffffffffffffffff168152602001908152602001600020905088816000018190555087816001019080519060200190612ff6929190613c6e565b508681600201908051906020019061300f929190613c6e565b5085816003019080519060200190613028929190613c6e565b5083816004019080519060200190613041929190613c6e565b508281600601908051906020019061305a929190613c6e565b5081816007019080519060200190613073929190613c6e565b506007859080600181540180825580915050600190039060005260206000200160009091909190916101000a81548173ffffffffffffffffffffffffffffffffffffffff021916908373ffffffffffffffffffffffffffffffffffffffff1602179055507ff80585ed02832f609ac5e0b29943c415c5ed9508a08389347a23f8cd75bbf7028989898989898989604051808981526020018060200180602001806020018873ffffffffffffffffffffffffffffffffffffffff1673ffffffffffffffffffffffffffffffffffffffff16815260200180602001806020018060200187810387528e818151815260200191508051906020019080838360005b8381101561318c578082015181840152602081019050613171565b50505050905090810190601f1680156131b95780820380516001836020036101000a031916815260200191505b5087810386528d818151815260200191508051906020019080838360005b838110156131f25780820151818401526020810190506131d7565b50505050905090810190601f16801561321f5780820380516001836020036101000a031916815260200191505b5087810385528c818151815260200191508051906020019080838360005b8381101561325857808201518184015260208101905061323d565b50505050905090810190601f1680156132855780820380516001836020036101000a031916815260200191505b5087810384528a818151815260200191508051906020019080838360005b838110156132be5780820151818401526020810190506132a3565b50505050905090810190601f1680156132eb5780820380516001836020036101000a031916815260200191505b50878103835289818151815260200191508051906020019080838360005b83811015613324578082015181840152602081019050613309565b50505050905090810190601f1680156133515780820380516001836020036101000a031916815260200191505b50878103825288818151815260200191508051906020019080838360005b8381101561338a57808201518184015260208101905061336f565b50505050905090810190601f1680156133b75780820380516001836020036101000a031916815260200191505b509e50505050505050505050505050505060405180910390a1505050505050505050565b600115156133e8336136ff565b151514613440576040517f08c379a0000000000000000000000000000000000000000000000000000000008152600401808060200182810382526023815260200180613df46023913960400191505060405180910390fd5b6000151561344d82613abb565b1515146134c2576040517f08c379a000000000000000000000000000000000000000000000000000000000815260040180806020018281038252601c8152602001807f507269736f6e6572732063616e6e6f742062652073656375726974790000000081525060200191505060405180910390fd5b6000600360008373ffffffffffffffffffffffffffffffffffffffff1673ffffffffffffffffffffffffffffffffffffffff168152602001908152602001600020905083816000018190555082816001019080519060200190613526929190613c6e565b507fcb5f8af23dd4a7aa2076561df383e03f2d8eb3ac43aecc8d736ba5afccb6c50c838360405180806020018373ffffffffffffffffffffffffffffffffffffffff1673ffffffffffffffffffffffffffffffffffffffff168152602001828103825284818151815260200191508051906020019080838360005b838110156135bc5780820151818401526020810190506135a1565b50505050905090810190601f1680156135e95780820380516001836020036101000a031916815260200191505b50935050505060405180910390a150505050565b6000815183511461361157600090506136f9565b816040516020018082805190602001908083835b602083106136485780518252602082019150602081019050602083039250613625565b6001836020036101000a03801982511681845116808217855250505050505090500191505060405160208183030381529060405280519060200120836040516020018082805190602001908083835b602083106136ba5780518252602082019150602081019050602083039250613697565b6001836020036101000a038019825116818451168082178552505050505050905001915050604051602081830303815290604052805190602001201490505b92915050565b6000806000905060008090505b6002805490508163ffffffff1610156137a25760028163ffffffff168154811061373257fe5b9060005260206000200160009054906101000a900473ffffffffffffffffffffffffffffffffffffffff1673ffffffffffffffffffffffffffffffffffffffff168473ffffffffffffffffffffffffffffffffffffffff16141561379557600191505b808060010191505061370c565b5080915050919050565b6060600360008473ffffffffffffffffffffffffffffffffffffffff1673ffffffffffffffffffffffffffffffffffffffff1681526020019081526020016000206002018054600181600116156101000203166002900480601f0160208091040260200160405190810160405280929190818152602001828054600181600116156101000203166002900480156138845780601f1061385957610100808354040283529160200191613884565b820191906000526020600020905b81548152906001019060200180831161386757829003601f168201915b5050505050905081600360008573ffffffffffffffffffffffffffffffffffffffff1673ffffffffffffffffffffffffffffffffffffffff16815260200190815260200160002060020190805190602001906138e1929190613c6e565b507f196ce44c92dbdd7bbeffceea5f223273f5f152212032a2b756d0406718a0a08e600360008573ffffffffffffffffffffffffffffffffffffffff1673ffffffffffffffffffffffffffffffffffffffff1681526020019081526020016000206001018284604051808060200180602001806020018481038452878181546001816001161561010002031660029004815260200191508054600181600116156101000203166002900480156139d85780601f106139ad576101008083540402835291602001916139d8565b820191906000526020600020905b8154815290600101906020018083116139bb57829003601f168201915b5050848103835286818151815260200191508051906020019080838360005b83811015613a125780820151818401526020810190506139f7565b50505050905090810190601f168015613a3f5780820380516001836020036101000a031916815260200191505b50848103825285818151815260200191508051906020019080838360005b83811015613a78578082015181840152602081019050613a5d565b50505050905090810190601f168015613aa55780820380516001836020036101000a031916815260200191505b50965050505050505060405180910390a1505050565b6000806000905060008090505b6007805490508163ffffffff161015613b5e5760078163ffffffff1681548110613aee57fe5b9060005260206000200160009054906101000a900473ffffffffffffffffffffffffffffffffffffffff1673ffffffffffffffffffffffffffffffffffffffff168473ffffffffffffffffffffffffffffffffffffffff161415613b5157600191505b8080600101915050613ac8565b5080915050919050565b6000600660008473ffffffffffffffffffffffffffffffffffffffff1673ffffffffffffffffffffffffffffffffffffffff16815260200190815260200160002060050154905081600660008573ffffffffffffffffffffffffffffffffffffffff1673ffffffffffffffffffffffffffffffffffffffff168152602001908152602001600020600501819055507f93e4f4bf448c1b561f857579a03b39f48af6a7a72200deb83b1f2d923a993443838284604051808473ffffffffffffffffffffffffffffffffffffffff1673ffffffffffffffffffffffffffffffffffffffff168152602001838152602001828152602001935050505060405180910390a1505050565b828054600181600116156101000203166002900490600052602060002090601f016020900481019282601f10613caf57805160ff1916838001178555613cdd565b82800160010185558215613cdd579182015b82811115613cdc578251825591602001919060010190613cc1565b5b509050613cea9190613cee565b5090565b613d1091905b80821115613d0c576000816000905550600101613cf4565b5090565b9056fe4f6e6c792053656375726974792063616e20686176652041737369676e6d656e74734f6e6c792057617264656e2063616e20416464206e6577204a6f622050726f7669646572214f6c6420616e64204e65772041737369676e6d656e742063616e6e6f742062652073616d654f6e6c79204a6f622050726f7669646572732063616e2061636365737320746869732066756e6374696f6e4f6e6c792057617264656e2063616e20416464206e657720507269736f6e657273214f6e6c792041646d696e206861732041636365737320746f20746869732046756e6374696f6e214f6e6c792057617264656e2063616e2061737369676e2063656c6c206e756d62657273a2646970667358221220783042b558f3433fee342ced06693b2151a229c37154ef56932d93cea8e6c6de64736f6c63430006070033",
  "immutableReferences": {},
  "source": "pragma solidity 0.6.7;\r\n\r\ncontract prisonManagement {\r\n    address private admin;\r\n\r\n    //Modifiers\r\n    modifier onlyAdmin() {\r\n        require(msg.sender == admin, \"Only Admin has Access to this Function!\");\r\n        _;\r\n    }\r\n\r\n    //Events\r\n    event Warden_Set(\r\n        uint256 id,\r\n        string first_name,\r\n        string last_name,\r\n        string dob,\r\n        address _address\r\n    );\r\n\r\n    event Prisoner_Set(\r\n        uint256 id,\r\n        string first_name,\r\n        string last_name,\r\n        string doj,\r\n        address _address,\r\n        string dol,\r\n        string belongings,\r\n        string medicalhistory\r\n    );\r\n\r\n    event prisoner_newCell(address _address, uint256 _cell);\r\n\r\n    event prisoner_Transferred(\r\n        address _address,\r\n        uint256 _oldcell,\r\n        uint256 _newcell\r\n    );\r\n\r\n    event JobProvider_Set(\r\n        uint256 id,\r\n        string name,\r\n        string jobs,\r\n        address _address\r\n    );\r\n\r\n    event Jobs_Updated(string jobs);\r\n\r\n    event Prisoner_newJob(string name, string job);\r\n\r\n    event new_Security(string name, address _address);\r\n\r\n    event security_newAssignment(string name, string assignment);\r\n\r\n    event security_changedAssignment(\r\n        string name,\r\n        string oldassignment,\r\n        string newassignment\r\n    );\r\n\r\n    constructor() public {\r\n        admin = msg.sender;\r\n    }\r\n\r\n    struct warden {\r\n        uint256 id;\r\n        string first_name;\r\n        string last_name;\r\n        string dob;\r\n    }\r\n\r\n    mapping(address => warden) Warden;\r\n    address[] public wardens;\r\n\r\n    struct prisoner {\r\n        uint256 id;\r\n        string first_name;\r\n        string last_name;\r\n        string doj;\r\n        string dol;\r\n        uint256 cell;\r\n        string belongings;\r\n        string medical;\r\n        //string job;\r\n    }\r\n\r\n    struct jobProvider {\r\n        uint256 id;\r\n        string name;\r\n        string jobs;\r\n    }\r\n\r\n    struct workingJobs {\r\n        string work;\r\n    }\r\n\r\n    struct Security {\r\n        uint256 id;\r\n        string name;\r\n        string assignment;\r\n    }\r\n\r\n    mapping(address => Security) public security;\r\n\r\n    mapping(address => workingJobs) public WorkingPrisoner;\r\n\r\n    mapping(address => jobProvider) public JobProvider;\r\n\r\n    mapping(address => prisoner) public Prisoner;\r\n    address[] public prisoners;\r\n\r\n    function set_Warden(\r\n        uint256 _id,\r\n        string memory _first_name,\r\n        string memory _last_name,\r\n        string memory _dob,\r\n        address _address\r\n    ) public onlyAdmin() {\r\n        warden storage Person = Warden[_address];\r\n        Person.id = _id;\r\n        Person.first_name = _first_name;\r\n        Person.last_name = _last_name;\r\n        Person.dob = _dob;\r\n        wardens.push(_address);\r\n        emit Warden_Set(_id, _first_name, _last_name, _dob, _address);\r\n    }\r\n\r\n    function set_Prisoner(\r\n        uint256 _id,\r\n        string memory _first_name,\r\n        string memory _last_name,\r\n        string memory _doj,\r\n        address _address,\r\n        string memory _dol,\r\n        string memory _belongings,\r\n        string memory _medical\r\n    ) public {\r\n        require(\r\n            checkWarden(msg.sender) == true,\r\n            \"Only Warden can Add new Prisoners!\"\r\n        );\r\n        prisoner storage Person = Prisoner[_address];\r\n        Person.id = _id;\r\n        Person.first_name = _first_name;\r\n        Person.last_name = _last_name;\r\n        Person.doj = _doj;\r\n        Person.dol = _dol;\r\n        Person.belongings = _belongings;\r\n        Person.medical = _medical;\r\n        prisoners.push(_address);\r\n        emit Prisoner_Set(\r\n            _id,\r\n            _first_name,\r\n            _last_name,\r\n            _doj,\r\n            _address,\r\n            _dol,\r\n            _belongings,\r\n            _medical\r\n        );\r\n    }\r\n\r\n    function set_JobProvider(\r\n        uint256 _id,\r\n        string memory _name,\r\n        string memory _jobs,\r\n        address _address\r\n    ) public {\r\n        require(\r\n            checkWarden(msg.sender) == true,\r\n            \"Only Warden can Add new Job Provider!\"\r\n        );\r\n        jobProvider storage Person = JobProvider[_address];\r\n        Person.id = _id;\r\n        Person.name = _name;\r\n        Person.jobs = _jobs;\r\n        emit JobProvider_Set(_id, _name, _jobs, _address);\r\n    }\r\n\r\n    function update_Jobs(string memory _jobs) public {\r\n        require(\r\n            JobProvider[msg.sender].id != 0,\r\n            \"Only Job Providers can access this function\"\r\n        );\r\n        require(\r\n            hashCompareWithLengthCheck(JobProvider[msg.sender].jobs, _jobs) ==\r\n                false,\r\n            \"Update must be met\"\r\n        );\r\n        JobProvider[msg.sender].jobs = _jobs;\r\n        emit Jobs_Updated(_jobs);\r\n    }\r\n\r\n    function set_Work(string memory _jobwork, address _address) public {\r\n        require(\r\n            JobProvider[msg.sender].id != 0,\r\n            \"Only Job Providers can access this function\"\r\n        );\r\n        require(\r\n            hashCompareWithLengthCheck(\r\n                WorkingPrisoner[_address].work,\r\n                _jobwork\r\n            ) == false,\r\n            \"Update must be met\"\r\n        );\r\n        require(\r\n            checkPrisoner(_address) == true,\r\n            \"Only Prisoners can have Jobs!\"\r\n        );\r\n        workingJobs storage Person = WorkingPrisoner[_address];\r\n        Person.work = _jobwork;\r\n        emit Prisoner_newJob(Prisoner[_address].first_name, _jobwork);\r\n    }\r\n\r\n    function set_Security(\r\n        uint256 _id,\r\n        string memory _name,\r\n        address _address\r\n    ) public {\r\n        require(\r\n            checkWarden(msg.sender) == true,\r\n            \"Only Warden can assign cell numbers\"\r\n        );\r\n        require(\r\n            checkPrisoner(_address) == false,\r\n            \"Prisoners cannot be security\"\r\n        );\r\n        Security storage Person = security[_address];\r\n        Person.id = _id;\r\n        Person.name = _name;\r\n        emit new_Security(_name, _address);\r\n    }\r\n\r\n    function set_AssignmentSecurity(address _address, string memory _assignment)\r\n        public\r\n    {\r\n        require(\r\n            checkWarden(msg.sender) == true,\r\n            \"Only Warden can assign cell numbers\"\r\n        );\r\n        require(\r\n            security[_address].id != 0,\r\n            \"Only Security can have Assignments\"\r\n        );\r\n        if (\r\n            hashCompareWithLengthCheck(security[_address].assignment, \"\") ==\r\n            true\r\n        ) {\r\n            security[_address].assignment = _assignment;\r\n            emit security_newAssignment(security[_address].name, _assignment);\r\n        } else {\r\n            require(\r\n                hashCompareWithLengthCheck(\r\n                    security[_address].assignment,\r\n                    _assignment\r\n                ) == false,\r\n                \"Old and New Assignment cannot be same\"\r\n            );\r\n            change_AssignmentSecurity(_address, _assignment);\r\n        }\r\n    }\r\n\r\n    function change_AssignmentSecurity(\r\n        address _address,\r\n        string memory _assignment\r\n    ) private {\r\n        string memory oldassignment = security[_address].assignment;\r\n        security[_address].assignment = _assignment;\r\n        emit security_changedAssignment(\r\n            security[_address].name,\r\n            oldassignment,\r\n            _assignment\r\n        );\r\n    }\r\n\r\n    function checkWarden(address _address) private view returns (bool) {\r\n        bool c = false;\r\n        for (uint32 i = 0; i < wardens.length; i++) {\r\n            if (_address == wardens[i]) c = true;\r\n        }\r\n        return (c);\r\n    }\r\n\r\n    function set_Cell(address _address, uint256 _cell) public returns (bool) {\r\n        require(\r\n            checkWarden(msg.sender) == true,\r\n            \"Only Warden can assign cell numbers\"\r\n        );\r\n        require(\r\n            checkPrisoner(_address) == true,\r\n            \"Only Prisoners can be in Cells\"\r\n        );\r\n        if (Prisoner[_address].cell == 0) {\r\n            Prisoner[_address].cell = _cell;\r\n            emit prisoner_newCell(_address, _cell);\r\n        } else {\r\n            require(\r\n                Prisoner[_address].cell != _cell,\r\n                \"Old and New Cell cannot be Same!\"\r\n            );\r\n            prisoner_Transfer(_address, _cell);\r\n        }\r\n    }\r\n\r\n    function prisoner_Transfer(address _address, uint256 _newcell) private {\r\n        uint256 oldcell;\r\n        oldcell = Prisoner[_address].cell;\r\n        Prisoner[_address].cell = _newcell;\r\n        emit prisoner_Transferred(_address, oldcell, _newcell);\r\n    }\r\n\r\n    function checkPrisoner(address _address) private view returns (bool) {\r\n        bool c = false;\r\n        for (uint32 i = 0; i < prisoners.length; i++) {\r\n            if (_address == prisoners[i]) c = true;\r\n        }\r\n        return (c);\r\n    }\r\n\r\n    function hashCompareWithLengthCheck(string memory a, string memory b)\r\n        private\r\n        pure\r\n        returns (bool)\r\n    {\r\n        if (bytes(a).length != bytes(b).length) {\r\n            return false;\r\n        } else {\r\n            return\r\n                keccak256(abi.encodePacked(a)) ==\r\n                keccak256(abi.encodePacked(b));\r\n        }\r\n    }\r\n}\r\n",
  "sourcePath": "C:\\Users\\aarya\\Documents\\GitHub\\prison-management-system\\contracts\\prisonManagement.sol",
  "compiler": {
    "name": "solc",
    "version": "0.6.7+commit.b8d736ae.Emscripten.clang"
  },
  "schemaVersion": "3.2.0",
  "updatedAt": "2020-06-25T10:09:04.668Z",
  "devdoc": {
    "methods": {}
  },
  "userdoc": {
    "methods": {}
  }
}