{
  "contractName": "prisonManagement",
  "abi": [
    {
      "inputs": [],
      "stateMutability": "nonpayable",
      "type": "constructor"
    },
    {
      "anonymous": false,
      "inputs": [
        {
          "indexed": false,
          "internalType": "uint256",
          "name": "id",
          "type": "uint256"
        },
        {
          "indexed": false,
          "internalType": "string",
          "name": "name",
          "type": "string"
        },
        {
          "indexed": false,
          "internalType": "string",
          "name": "jobs",
          "type": "string"
        },
        {
          "indexed": false,
          "internalType": "address",
          "name": "_address",
          "type": "address"
        }
      ],
      "name": "JobProvider_Set",
      "type": "event"
    },
    {
      "anonymous": false,
      "inputs": [
        {
          "indexed": false,
          "internalType": "string",
          "name": "jobs",
          "type": "string"
        }
      ],
      "name": "Jobs_Updated",
      "type": "event"
    },
    {
      "anonymous": false,
      "inputs": [
        {
          "indexed": false,
          "internalType": "uint256",
          "name": "id",
          "type": "uint256"
        },
        {
          "indexed": false,
          "internalType": "string",
          "name": "first_name",
          "type": "string"
        },
        {
          "indexed": false,
          "internalType": "string",
          "name": "last_name",
          "type": "string"
        },
        {
          "indexed": false,
          "internalType": "string",
          "name": "doj",
          "type": "string"
        },
        {
          "indexed": false,
          "internalType": "address",
          "name": "_address",
          "type": "address"
        },
        {
          "indexed": false,
          "internalType": "string",
          "name": "dol",
          "type": "string"
        },
        {
          "indexed": false,
          "internalType": "string",
          "name": "belongings",
          "type": "string"
        },
        {
          "indexed": false,
          "internalType": "string",
          "name": "medicalhistory",
          "type": "string"
        }
      ],
      "name": "Prisoner_Set",
      "type": "event"
    },
    {
      "anonymous": false,
      "inputs": [
        {
          "indexed": false,
          "internalType": "uint256",
          "name": "id",
          "type": "uint256"
        },
        {
          "indexed": false,
          "internalType": "string",
          "name": "first_name",
          "type": "string"
        },
        {
          "indexed": false,
          "internalType": "string",
          "name": "last_name",
          "type": "string"
        },
        {
          "indexed": false,
          "internalType": "string",
          "name": "dob",
          "type": "string"
        },
        {
          "indexed": false,
          "internalType": "address",
          "name": "_address",
          "type": "address"
        }
      ],
      "name": "Warden_Set",
      "type": "event"
    },
    {
      "anonymous": false,
      "inputs": [
        {
          "indexed": false,
          "internalType": "address",
          "name": "_address",
          "type": "address"
        },
        {
          "indexed": false,
          "internalType": "uint256",
          "name": "_oldcell",
          "type": "uint256"
        },
        {
          "indexed": false,
          "internalType": "uint256",
          "name": "_newcell",
          "type": "uint256"
        }
      ],
      "name": "prisoner_Transferred",
      "type": "event"
    },
    {
      "anonymous": false,
      "inputs": [
        {
          "indexed": false,
          "internalType": "address",
          "name": "_address",
          "type": "address"
        },
        {
          "indexed": false,
          "internalType": "uint256",
          "name": "_cell",
          "type": "uint256"
        }
      ],
      "name": "prisoner_newCell",
      "type": "event"
    },
    {
      "inputs": [
        {
          "internalType": "address",
          "name": "",
          "type": "address"
        }
      ],
      "name": "JobProvider",
      "outputs": [
        {
          "internalType": "uint256",
          "name": "id",
          "type": "uint256"
        },
        {
          "internalType": "string",
          "name": "name",
          "type": "string"
        },
        {
          "internalType": "string",
          "name": "jobs",
          "type": "string"
        }
      ],
      "stateMutability": "view",
      "type": "function"
    },
    {
      "inputs": [
        {
          "internalType": "address",
          "name": "",
          "type": "address"
        }
      ],
      "name": "Prisoner",
      "outputs": [
        {
          "internalType": "uint256",
          "name": "id",
          "type": "uint256"
        },
        {
          "internalType": "string",
          "name": "first_name",
          "type": "string"
        },
        {
          "internalType": "string",
          "name": "last_name",
          "type": "string"
        },
        {
          "internalType": "string",
          "name": "doj",
          "type": "string"
        },
        {
          "internalType": "string",
          "name": "dol",
          "type": "string"
        },
        {
          "internalType": "uint256",
          "name": "cell",
          "type": "uint256"
        },
        {
          "internalType": "string",
          "name": "belongings",
          "type": "string"
        },
        {
          "internalType": "string",
          "name": "medical",
          "type": "string"
        }
      ],
      "stateMutability": "view",
      "type": "function"
    },
    {
      "inputs": [
        {
          "internalType": "uint256",
          "name": "",
          "type": "uint256"
        }
      ],
      "name": "prisoners",
      "outputs": [
        {
          "internalType": "address",
          "name": "",
          "type": "address"
        }
      ],
      "stateMutability": "view",
      "type": "function"
    },
    {
      "inputs": [
        {
          "internalType": "uint256",
          "name": "",
          "type": "uint256"
        }
      ],
      "name": "wardens",
      "outputs": [
        {
          "internalType": "address",
          "name": "",
          "type": "address"
        }
      ],
      "stateMutability": "view",
      "type": "function"
    },
    {
      "inputs": [
        {
          "internalType": "uint256",
          "name": "_id",
          "type": "uint256"
        },
        {
          "internalType": "string",
          "name": "_first_name",
          "type": "string"
        },
        {
          "internalType": "string",
          "name": "_last_name",
          "type": "string"
        },
        {
          "internalType": "string",
          "name": "_dob",
          "type": "string"
        },
        {
          "internalType": "address",
          "name": "_address",
          "type": "address"
        }
      ],
      "name": "set_Warden",
      "outputs": [],
      "stateMutability": "nonpayable",
      "type": "function"
    },
    {
      "inputs": [
        {
          "internalType": "uint256",
          "name": "_id",
          "type": "uint256"
        },
        {
          "internalType": "string",
          "name": "_first_name",
          "type": "string"
        },
        {
          "internalType": "string",
          "name": "_last_name",
          "type": "string"
        },
        {
          "internalType": "string",
          "name": "_doj",
          "type": "string"
        },
        {
          "internalType": "address",
          "name": "_address",
          "type": "address"
        },
        {
          "internalType": "string",
          "name": "_dol",
          "type": "string"
        },
        {
          "internalType": "string",
          "name": "_belongings",
          "type": "string"
        },
        {
          "internalType": "string",
          "name": "_medical",
          "type": "string"
        }
      ],
      "name": "set_Prisoner",
      "outputs": [],
      "stateMutability": "nonpayable",
      "type": "function"
    },
    {
      "inputs": [
        {
          "internalType": "uint256",
          "name": "_id",
          "type": "uint256"
        },
        {
          "internalType": "string",
          "name": "_name",
          "type": "string"
        },
        {
          "internalType": "string",
          "name": "_jobs",
          "type": "string"
        },
        {
          "internalType": "address",
          "name": "_address",
          "type": "address"
        }
      ],
      "name": "set_JobProvider",
      "outputs": [],
      "stateMutability": "nonpayable",
      "type": "function"
    },
    {
      "inputs": [
        {
          "internalType": "string",
          "name": "_jobs",
          "type": "string"
        }
      ],
      "name": "update_Jobs",
      "outputs": [],
      "stateMutability": "nonpayable",
      "type": "function"
    },
    {
      "inputs": [
        {
          "internalType": "address",
          "name": "_address",
          "type": "address"
        },
        {
          "internalType": "uint256",
          "name": "_cell",
          "type": "uint256"
        }
      ],
      "name": "set_Cell",
      "outputs": [
        {
          "internalType": "bool",
          "name": "",
          "type": "bool"
        }
      ],
      "stateMutability": "nonpayable",
      "type": "function"
    }
  ],
  "bytecode": "0x608060405234801561001057600080fd5b50336000806101000a81548173ffffffffffffffffffffffffffffffffffffffff021916908373ffffffffffffffffffffffffffffffffffffffff160217905550612894806100606000396000f3fe608060405234801561001057600080fd5b50600436106100935760003560e01c80634894ac9c116100665780634894ac9c146103ab578063634e8dad146105be578063659b5435146108a5578063e017061a146109d5578063f958002e14610a3b57610093565b80630277be691461009857806312d53a6c146101535780631f822a47146101c15780632d34bf4d1461033d575b600080fd5b610151600480360360208110156100ae57600080fd5b81019080803590602001906401000000008111156100cb57600080fd5b8201836020820111156100dd57600080fd5b803590602001918460018302840111640100000000831117156100ff57600080fd5b91908080601f016020809104026020016040519081016040528093929190818152602001838380828437600081840152601f19601f820116905080830192505050505050509192919290505050610e14565b005b61017f6004803603602081101561016957600080fd5b8101908080359060200190929190505050611103565b604051808273ffffffffffffffffffffffffffffffffffffffff1673ffffffffffffffffffffffffffffffffffffffff16815260200191505060405180910390f35b61033b600480360360808110156101d757600080fd5b8101908080359060200190929190803590602001906401000000008111156101fe57600080fd5b82018360208201111561021057600080fd5b8035906020019184600183028401116401000000008311171561023257600080fd5b91908080601f016020809104026020016040519081016040528093929190818152602001838380828437600081840152601f19601f8201169050808301925050505050505091929192908035906020019064010000000081111561029557600080fd5b8201836020820111156102a757600080fd5b803590602001918460018302840111640100000000831117156102c957600080fd5b91908080601f016020809104026020016040519081016040528093929190818152602001838380828437600081840152601f19601f820116905080830192505050505050509192919290803573ffffffffffffffffffffffffffffffffffffffff16906020019092919050505061113f565b005b6103696004803603602081101561035357600080fd5b810190808035906020019092919050505061136e565b604051808273ffffffffffffffffffffffffffffffffffffffff1673ffffffffffffffffffffffffffffffffffffffff16815260200191505060405180910390f35b6105bc600480360360a08110156103c157600080fd5b8101908080359060200190929190803590602001906401000000008111156103e857600080fd5b8201836020820111156103fa57600080fd5b8035906020019184600183028401116401000000008311171561041c57600080fd5b91908080601f016020809104026020016040519081016040528093929190818152602001838380828437600081840152601f19601f8201169050808301925050505050505091929192908035906020019064010000000081111561047f57600080fd5b82018360208201111561049157600080fd5b803590602001918460018302840111640100000000831117156104b357600080fd5b91908080601f016020809104026020016040519081016040528093929190818152602001838380828437600081840152601f19601f8201169050808301925050505050505091929192908035906020019064010000000081111561051657600080fd5b82018360208201111561052857600080fd5b8035906020019184600183028401116401000000008311171561054a57600080fd5b91908080601f016020809104026020016040519081016040528093929190818152602001838380828437600081840152601f19601f820116905080830192505050505050509192919290803573ffffffffffffffffffffffffffffffffffffffff1690602001909291905050506113aa565b005b610600600480360360208110156105d457600080fd5b81019080803573ffffffffffffffffffffffffffffffffffffffff169060200190929190505050611703565b6040518089815260200180602001806020018060200180602001888152602001806020018060200187810387528e818151815260200191508051906020019080838360005b83811015610660578082015181840152602081019050610645565b50505050905090810190601f16801561068d5780820380516001836020036101000a031916815260200191505b5087810386528d818151815260200191508051906020019080838360005b838110156106c65780820151818401526020810190506106ab565b50505050905090810190601f1680156106f35780820380516001836020036101000a031916815260200191505b5087810385528c818151815260200191508051906020019080838360005b8381101561072c578082015181840152602081019050610711565b50505050905090810190601f1680156107595780820380516001836020036101000a031916815260200191505b5087810384528b818151815260200191508051906020019080838360005b83811015610792578082015181840152602081019050610777565b50505050905090810190601f1680156107bf5780820380516001836020036101000a031916815260200191505b50878103835289818151815260200191508051906020019080838360005b838110156107f85780820151818401526020810190506107dd565b50505050905090810190601f1680156108255780820380516001836020036101000a031916815260200191505b50878103825288818151815260200191508051906020019080838360005b8381101561085e578082015181840152602081019050610843565b50505050905090810190601f16801561088b5780820380516001836020036101000a031916815260200191505b509e50505050505050505050505050505060405180910390f35b6108e7600480360360208110156108bb57600080fd5b81019080803573ffffffffffffffffffffffffffffffffffffffff169060200190929190505050611adb565b604051808481526020018060200180602001838103835285818151815260200191508051906020019080838360005b83811015610931578082015181840152602081019050610916565b50505050905090810190601f16801561095e5780820380516001836020036101000a031916815260200191505b50838103825284818151815260200191508051906020019080838360005b8381101561099757808201518184015260208101905061097c565b50505050905090810190601f1680156109c45780820380516001836020036101000a031916815260200191505b509550505050505060405180910390f35b610a21600480360360408110156109eb57600080fd5b81019080803573ffffffffffffffffffffffffffffffffffffffff16906020019092919080359060200190929190505050611c35565b604051808215151515815260200191505060405180910390f35b610e126004803603610100811015610a5257600080fd5b810190808035906020019092919080359060200190640100000000811115610a7957600080fd5b820183602082011115610a8b57600080fd5b80359060200191846001830284011164010000000083111715610aad57600080fd5b91908080601f016020809104026020016040519081016040528093929190818152602001838380828437600081840152601f19601f82011690508083019250505050505050919291929080359060200190640100000000811115610b1057600080fd5b820183602082011115610b2257600080fd5b80359060200191846001830284011164010000000083111715610b4457600080fd5b91908080601f016020809104026020016040519081016040528093929190818152602001838380828437600081840152601f19601f82011690508083019250505050505050919291929080359060200190640100000000811115610ba757600080fd5b820183602082011115610bb957600080fd5b80359060200191846001830284011164010000000083111715610bdb57600080fd5b91908080601f016020809104026020016040519081016040528093929190818152602001838380828437600081840152601f19601f820116905080830192505050505050509192919290803573ffffffffffffffffffffffffffffffffffffffff16906020019092919080359060200190640100000000811115610c5e57600080fd5b820183602082011115610c7057600080fd5b80359060200191846001830284011164010000000083111715610c9257600080fd5b91908080601f016020809104026020016040519081016040528093929190818152602001838380828437600081840152601f19601f82011690508083019250505050505050919291929080359060200190640100000000811115610cf557600080fd5b820183602082011115610d0757600080fd5b80359060200191846001830284011164010000000083111715610d2957600080fd5b91908080601f016020809104026020016040519081016040528093929190818152602001838380828437600081840152601f19601f82011690508083019250505050505050919291929080359060200190640100000000811115610d8c57600080fd5b820183602082011115610d9e57600080fd5b80359060200191846001830284011164010000000083111715610dc057600080fd5b91908080601f016020809104026020016040519081016040528093929190818152602001838380828437600081840152601f19601f820116905080830192505050505050509192919290505050611eea565b005b6000600360003373ffffffffffffffffffffffffffffffffffffffff1673ffffffffffffffffffffffffffffffffffffffff168152602001908152602001600020600001541415610eb0576040517f08c379a000000000000000000000000000000000000000000000000000000000815260040180806020018281038252602b8152602001806127c8602b913960400191505060405180910390fd5b60001515610f98600360003373ffffffffffffffffffffffffffffffffffffffff1673ffffffffffffffffffffffffffffffffffffffff1681526020019081526020016000206002018054600181600116156101000203166002900480601f016020809104026020016040519081016040528092919081815260200182805460018160011615610100020316600290048015610f8d5780601f10610f6257610100808354040283529160200191610f8d565b820191906000526020600020905b815481529060010190602001808311610f7057829003601f168201915b505050505083612398565b15151461100d576040517f08c379a00000000000000000000000000000000000000000000000000000000081526004018080602001828103825260128152602001807f557064617465206d757374206265206d6574000000000000000000000000000081525060200191505060405180910390fd5b80600360003373ffffffffffffffffffffffffffffffffffffffff1673ffffffffffffffffffffffffffffffffffffffff16815260200190815260200160002060020190805190602001906110639291906126fd565b507f9e33f5b213dab3748e6badb97ca4baf250657a625b4fb560801e50003e9ec005816040518080602001828103825283818151815260200191508051906020019080838360005b838110156110c65780820151818401526020810190506110ab565b50505050905090810190601f1680156110f35780820380516001836020036101000a031916815260200191505b509250505060405180910390a150565b6002818154811061111057fe5b906000526020600020016000915054906101000a900473ffffffffffffffffffffffffffffffffffffffff1681565b6001151561114c3361249a565b1515146111a4576040517f08c379a00000000000000000000000000000000000000000000000000000000081526004018080602001828103825260258152602001806127a36025913960400191505060405180910390fd5b6000600360008373ffffffffffffffffffffffffffffffffffffffff1673ffffffffffffffffffffffffffffffffffffffff1681526020019081526020016000209050848160000181905550838160010190805190602001906112089291906126fd565b50828160020190805190602001906112219291906126fd565b507fee0a9fcdeb399f439d300266235b31f90456a4d6fd4582d23bd3ad0d974eedfe858585856040518085815260200180602001806020018473ffffffffffffffffffffffffffffffffffffffff1673ffffffffffffffffffffffffffffffffffffffff168152602001838103835286818151815260200191508051906020019080838360005b838110156112c35780820151818401526020810190506112a8565b50505050905090810190601f1680156112f05780820380516001836020036101000a031916815260200191505b50838103825285818151815260200191508051906020019080838360005b8381101561132957808201518184015260208101905061130e565b50505050905090810190601f1680156113565780820380516001836020036101000a031916815260200191505b50965050505050505060405180910390a15050505050565b6005818154811061137b57fe5b906000526020600020016000915054906101000a900473ffffffffffffffffffffffffffffffffffffffff1681565b6000809054906101000a900473ffffffffffffffffffffffffffffffffffffffff1673ffffffffffffffffffffffffffffffffffffffff163373ffffffffffffffffffffffffffffffffffffffff161461144f576040517f08c379a00000000000000000000000000000000000000000000000000000000081526004018080602001828103825260278152602001806128156027913960400191505060405180910390fd5b6000600160008373ffffffffffffffffffffffffffffffffffffffff1673ffffffffffffffffffffffffffffffffffffffff1681526020019081526020016000209050858160000181905550848160010190805190602001906114b39291906126fd565b50838160020190805190602001906114cc9291906126fd565b50828160030190805190602001906114e59291906126fd565b506002829080600181540180825580915050600190039060005260206000200160009091909190916101000a81548173ffffffffffffffffffffffffffffffffffffffff021916908373ffffffffffffffffffffffffffffffffffffffff1602179055507f26378e749e3ab3b999f8026861367f44aafb4f3ba720b080bc230a7d84522f348686868686604051808681526020018060200180602001806020018573ffffffffffffffffffffffffffffffffffffffff1673ffffffffffffffffffffffffffffffffffffffff168152602001848103845288818151815260200191508051906020019080838360005b838110156115ef5780820151818401526020810190506115d4565b50505050905090810190601f16801561161c5780820380516001836020036101000a031916815260200191505b50848103835287818151815260200191508051906020019080838360005b8381101561165557808201518184015260208101905061163a565b50505050905090810190601f1680156116825780820380516001836020036101000a031916815260200191505b50848103825286818151815260200191508051906020019080838360005b838110156116bb5780820151818401526020810190506116a0565b50505050905090810190601f1680156116e85780820380516001836020036101000a031916815260200191505b509850505050505050505060405180910390a1505050505050565b6004602052806000526040600020600091509050806000015490806001018054600181600116156101000203166002900480601f0160208091040260200160405190810160405280929190818152602001828054600181600116156101000203166002900480156117b55780601f1061178a576101008083540402835291602001916117b5565b820191906000526020600020905b81548152906001019060200180831161179857829003601f168201915b505050505090806002018054600181600116156101000203166002900480601f0160208091040260200160405190810160405280929190818152602001828054600181600116156101000203166002900480156118535780601f1061182857610100808354040283529160200191611853565b820191906000526020600020905b81548152906001019060200180831161183657829003601f168201915b505050505090806003018054600181600116156101000203166002900480601f0160208091040260200160405190810160405280929190818152602001828054600181600116156101000203166002900480156118f15780601f106118c6576101008083540402835291602001916118f1565b820191906000526020600020905b8154815290600101906020018083116118d457829003601f168201915b505050505090806004018054600181600116156101000203166002900480601f01602080910402602001604051908101604052809291908181526020018280546001816001161561010002031660029004801561198f5780601f106119645761010080835404028352916020019161198f565b820191906000526020600020905b81548152906001019060200180831161197257829003601f168201915b505050505090806005015490806006018054600181600116156101000203166002900480601f016020809104026020016040519081016040528092919081815260200182805460018160011615610100020316600290048015611a335780601f10611a0857610100808354040283529160200191611a33565b820191906000526020600020905b815481529060010190602001808311611a1657829003601f168201915b505050505090806007018054600181600116156101000203166002900480601f016020809104026020016040519081016040528092919081815260200182805460018160011615610100020316600290048015611ad15780601f10611aa657610100808354040283529160200191611ad1565b820191906000526020600020905b815481529060010190602001808311611ab457829003601f168201915b5050505050905088565b6003602052806000526040600020600091509050806000015490806001018054600181600116156101000203166002900480601f016020809104026020016040519081016040528092919081815260200182805460018160011615610100020316600290048015611b8d5780601f10611b6257610100808354040283529160200191611b8d565b820191906000526020600020905b815481529060010190602001808311611b7057829003601f168201915b505050505090806002018054600181600116156101000203166002900480601f016020809104026020016040519081016040528092919081815260200182805460018160011615610100020316600290048015611c2b5780601f10611c0057610100808354040283529160200191611c2b565b820191906000526020600020905b815481529060010190602001808311611c0e57829003601f168201915b5050505050905083565b600060011515611c443361249a565b151514611c9c576040517f08c379a000000000000000000000000000000000000000000000000000000000815260040180806020018281038252602381526020018061283c6023913960400191505060405180910390fd5b60011515611ca984612547565b151514611d1e576040517f08c379a000000000000000000000000000000000000000000000000000000000815260040180806020018281038252601e8152602001807f4f6e6c7920507269736f6e6572732063616e20626520696e2043656c6c73000081525060200191505060405180910390fd5b6000600460008573ffffffffffffffffffffffffffffffffffffffff1673ffffffffffffffffffffffffffffffffffffffff168152602001908152602001600020600501541415611e205781600460008573ffffffffffffffffffffffffffffffffffffffff1673ffffffffffffffffffffffffffffffffffffffff168152602001908152602001600020600501819055507f745af81677a0d8142530f2790dc6db26cf90b9f080b7ebdf3636c25ed4ac9d298383604051808373ffffffffffffffffffffffffffffffffffffffff1673ffffffffffffffffffffffffffffffffffffffff1681526020018281526020019250505060405180910390a1611ee4565b81600460008573ffffffffffffffffffffffffffffffffffffffff1673ffffffffffffffffffffffffffffffffffffffff168152602001908152602001600020600501541415611ed8576040517f08c379a00000000000000000000000000000000000000000000000000000000081526004018080602001828103825260208152602001807f4f6c6420616e64204e65772043656c6c2063616e6e6f742062652053616d652181525060200191505060405180910390fd5b611ee283836125f4565b505b92915050565b60011515611ef73361249a565b151514611f4f576040517f08c379a00000000000000000000000000000000000000000000000000000000081526004018080602001828103825260228152602001806127f36022913960400191505060405180910390fd5b6000600460008673ffffffffffffffffffffffffffffffffffffffff1673ffffffffffffffffffffffffffffffffffffffff168152602001908152602001600020905088816000018190555087816001019080519060200190611fb39291906126fd565b5086816002019080519060200190611fcc9291906126fd565b5085816003019080519060200190611fe59291906126fd565b5083816004019080519060200190611ffe9291906126fd565b50828160060190805190602001906120179291906126fd565b50818160070190805190602001906120309291906126fd565b506005859080600181540180825580915050600190039060005260206000200160009091909190916101000a81548173ffffffffffffffffffffffffffffffffffffffff021916908373ffffffffffffffffffffffffffffffffffffffff1602179055507ff80585ed02832f609ac5e0b29943c415c5ed9508a08389347a23f8cd75bbf7028989898989898989604051808981526020018060200180602001806020018873ffffffffffffffffffffffffffffffffffffffff1673ffffffffffffffffffffffffffffffffffffffff16815260200180602001806020018060200187810387528e818151815260200191508051906020019080838360005b8381101561214957808201518184015260208101905061212e565b50505050905090810190601f1680156121765780820380516001836020036101000a031916815260200191505b5087810386528d818151815260200191508051906020019080838360005b838110156121af578082015181840152602081019050612194565b50505050905090810190601f1680156121dc5780820380516001836020036101000a031916815260200191505b5087810385528c818151815260200191508051906020019080838360005b838110156122155780820151818401526020810190506121fa565b50505050905090810190601f1680156122425780820380516001836020036101000a031916815260200191505b5087810384528a818151815260200191508051906020019080838360005b8381101561227b578082015181840152602081019050612260565b50505050905090810190601f1680156122a85780820380516001836020036101000a031916815260200191505b50878103835289818151815260200191508051906020019080838360005b838110156122e15780820151818401526020810190506122c6565b50505050905090810190601f16801561230e5780820380516001836020036101000a031916815260200191505b50878103825288818151815260200191508051906020019080838360005b8381101561234757808201518184015260208101905061232c565b50505050905090810190601f1680156123745780820380516001836020036101000a031916815260200191505b509e50505050505050505050505050505060405180910390a1505050505050505050565b600081518351146123ac5760009050612494565b816040516020018082805190602001908083835b602083106123e357805182526020820191506020810190506020830392506123c0565b6001836020036101000a03801982511681845116808217855250505050505090500191505060405160208183030381529060405280519060200120836040516020018082805190602001908083835b602083106124555780518252602082019150602081019050602083039250612432565b6001836020036101000a038019825116818451168082178552505050505050905001915050604051602081830303815290604052805190602001201490505b92915050565b6000806000905060008090505b6002805490508163ffffffff16101561253d5760028163ffffffff16815481106124cd57fe5b9060005260206000200160009054906101000a900473ffffffffffffffffffffffffffffffffffffffff1673ffffffffffffffffffffffffffffffffffffffff168473ffffffffffffffffffffffffffffffffffffffff16141561253057600191505b80806001019150506124a7565b5080915050919050565b6000806000905060008090505b6005805490508163ffffffff1610156125ea5760058163ffffffff168154811061257a57fe5b9060005260206000200160009054906101000a900473ffffffffffffffffffffffffffffffffffffffff1673ffffffffffffffffffffffffffffffffffffffff168473ffffffffffffffffffffffffffffffffffffffff1614156125dd57600191505b8080600101915050612554565b5080915050919050565b600080600460008573ffffffffffffffffffffffffffffffffffffffff1673ffffffffffffffffffffffffffffffffffffffff16815260200190815260200160002060050154905082600460008673ffffffffffffffffffffffffffffffffffffffff1673ffffffffffffffffffffffffffffffffffffffff168152602001908152602001600020600501819055507f93e4f4bf448c1b561f857579a03b39f48af6a7a72200deb83b1f2d923a993443848285604051808473ffffffffffffffffffffffffffffffffffffffff1673ffffffffffffffffffffffffffffffffffffffff168152602001838152602001828152602001935050505060405180910390a15092915050565b828054600181600116156101000203166002900490600052602060002090601f016020900481019282601f1061273e57805160ff191683800117855561276c565b8280016001018555821561276c579182015b8281111561276b578251825591602001919060010190612750565b5b509050612779919061277d565b5090565b61279f91905b8082111561279b576000816000905550600101612783565b5090565b9056fe4f6e6c792057617264656e2063616e20416464206e6577204a6f622050726f7669646572214f6e6c79204a6f622050726f7669646572732063616e2061636365737320746869732066756e6374696f6e4f6e6c792057617264656e2063616e20416464206e657720507269736f6e657273214f6e6c792041646d696e206861732041636365737320746f20746869732046756e6374696f6e214f6e6c792057617264656e2063616e2061737369676e2063656c6c206e756d62657273a2646970667358221220f6782183eb441eb66b7e8a539e2366007a22c25ea3047fb3bef9c3b3881cc8a464736f6c63430006070033",
  "immutableReferences": {},
  "source": "pragma solidity 0.6.7;\n\ncontract prisonManagement {\n\taddress private admin;\n  \n\t//Modifiers\n\tmodifier onlyAdmin(){\n  \trequire(msg.sender==admin,\"Only Admin has Access to this Function!\");_;\n  }\n\n\n  //Events\n  event Warden_Set(\n  \tuint id,\n  \tstring first_name,\n  \tstring last_name,\n  \tstring dob,\n  \taddress _address);\n\n    event Prisoner_Set(\n  \tuint id,\n  \tstring first_name,\n  \tstring last_name,\n  \tstring doj,\n  \taddress _address,\n  \tstring dol,\n  \tstring belongings,\n  \tstring medicalhistory);\n\n  \tevent prisoner_newCell(\n  \t\taddress _address,\n  \t\tuint _cell);\n\n  \tevent prisoner_Transferred(\n  \t\taddress _address,\n  \t\tuint _oldcell,\n  \t\tuint _newcell);\n\n  \tevent JobProvider_Set(\n  \t\tuint id,\n  \t\tstring name,\n  \t\tstring jobs,\n  \t\taddress _address);\n\n  \tevent Jobs_Updated(\n  \t\tstring jobs);\n\n  constructor() public {\n  \tadmin=msg.sender;\n  }\n\n  struct warden{\n  \tuint id;\n  \tstring first_name;\n  \tstring last_name;\n  \tstring dob;\n  }\n\n  mapping (address => warden) Warden;\n  address[] public wardens;\n\n  struct prisoner{\n  \tuint id;\n  \tstring first_name;\n  \tstring last_name;\n  \tstring doj;\n  \tstring dol;\n  \tuint cell;\n  \tstring belongings;\n  \tstring medical;\n  \t//string job;\n  }\n\n  struct jobProvider{\n  \tuint id;\n  \tstring name;\n\n  \tstring jobs;\n  }\n\n  mapping (address => jobProvider) public JobProvider;\n\n\n  mapping (address => prisoner) public Prisoner;\n  address[] public prisoners;\n\n  function set_Warden(uint _id, string memory _first_name, string memory _last_name, string memory _dob, address _address) public onlyAdmin() {\n  \twarden storage Person = Warden[_address];\n  \tPerson.id=_id;\n  \tPerson.first_name=_first_name;\n  \tPerson.last_name=_last_name;\n  \tPerson.dob=_dob;\n  \twardens.push(_address);\n  \temit Warden_Set(_id,_first_name,_last_name,_dob,_address);\n  }\n\n  function set_Prisoner(uint _id, string memory _first_name, string memory _last_name,string memory _doj, address _address,string memory _dol,string memory _belongings,string memory _medical) public {\n  \trequire(checkWarden(msg.sender)==true,\"Only Warden can Add new Prisoners!\");\n  \tprisoner storage Person = Prisoner[_address];\n  \tPerson.id=_id;\n  \tPerson.first_name=_first_name;\n  \tPerson.last_name=_last_name;\n  \tPerson.doj=_doj;\n  \tPerson.dol=_dol;\n  \tPerson.belongings=_belongings;\n  \tPerson.medical=_medical;\n  \tprisoners.push(_address);\n  \temit Prisoner_Set(_id,_first_name,_last_name,_doj,_address,_dol,_belongings,_medical);\n  }\n\n  function set_JobProvider(uint _id,string memory _name, string memory _jobs,address _address) public {\n  \trequire(checkWarden(msg.sender)==true,\"Only Warden can Add new Job Provider!\");\n  \tjobProvider storage Person = JobProvider[_address];\n  \tPerson.id=_id;\n  \tPerson.name=_name;\n  \tPerson.jobs=_jobs;\n  \temit JobProvider_Set(_id,_name,_jobs,_address);\n  }\n\n  function update_Jobs(string memory _jobs) public {\n  \trequire(JobProvider[msg.sender].id!=0,\"Only Job Providers can access this function\");\n  \trequire(hashCompareWithLengthCheck(JobProvider[msg.sender].jobs,_jobs)==false,\"Update must be met\");\n  \tJobProvider[msg.sender].jobs=_jobs;\n  \temit Jobs_Updated(_jobs);\n  }\n\n  function checkWarden(address _address) private view returns(bool){\n        bool c=false;\n        for(uint32 i=0;i<wardens.length;i++){\n            if(_address==wardens[i])\n              c=true;\n        }\n        return(c);\n    }\n\n  function set_Cell(address _address,uint _cell) public returns(bool){\n  \trequire(checkWarden(msg.sender)==true,\"Only Warden can assign cell numbers\");\n  \trequire(checkPrisoner(_address)==true,\"Only Prisoners can be in Cells\");\n  \tif(Prisoner[_address].cell==0){\n  \t\tPrisoner[_address].cell=_cell;\n  \t\temit prisoner_newCell(_address,_cell);\n  \t} else {\n  \t\trequire(Prisoner[_address].cell!=_cell,\"Old and New Cell cannot be Same!\");\n  \t\tprisoner_Transfer(_address,_cell);\n  \t}\n\n  }\n\n  function prisoner_Transfer(address _address,uint _newcell) private returns(bool){\n  \tuint oldcell;\n  \toldcell = Prisoner[_address].cell;\n  \tPrisoner[_address].cell=_newcell;\n  \temit prisoner_Transferred(_address,oldcell,_newcell);\n  }\n\n  function checkPrisoner(address _address) private view returns(bool){\n      bool c=false;\n      for(uint32 i=0;i<prisoners.length;i++){\n          if(_address==prisoners[i])\n            c=true;\n      }\n      return(c);\n  }\n\n    function hashCompareWithLengthCheck(string memory a,string memory b) private pure returns(bool){\n    if(bytes(a).length != bytes(b).length) {\n        return false;\n    } else {\n        return keccak256(abi.encodePacked(a)) == keccak256(abi.encodePacked(b));\n    }\n}\n}\n\n\n\n",
  "sourcePath": "C:\\Users\\Aaryamann\\Desktop\\prisonManagement\\contracts\\prisonManagement.sol",
  "compiler": {
    "name": "solc",
    "version": "0.6.7+commit.b8d736ae.Emscripten.clang"
  },
  "schemaVersion": "3.1.0",
  "updatedAt": "2020-05-25T12:51:27.439Z",
  "devdoc": {
    "methods": {}
  },
  "userdoc": {
    "methods": {}
  }
}