{
  "contractName": "prisonManagement",
  "abi": [
    {
      "inputs": [],
      "stateMutability": "nonpayable",
      "type": "constructor"
    },
    {
      "anonymous": false,
      "inputs": [
        {
          "indexed": false,
          "internalType": "uint256",
          "name": "id",
          "type": "uint256"
        },
        {
          "indexed": false,
          "internalType": "string",
          "name": "name",
          "type": "string"
        },
        {
          "indexed": false,
          "internalType": "string",
          "name": "jobs",
          "type": "string"
        },
        {
          "indexed": false,
          "internalType": "address",
          "name": "_address",
          "type": "address"
        }
      ],
      "name": "JobProvider_Set",
      "type": "event"
    },
    {
      "anonymous": false,
      "inputs": [
        {
          "indexed": false,
          "internalType": "string",
          "name": "jobs",
          "type": "string"
        }
      ],
      "name": "Jobs_Updated",
      "type": "event"
    },
    {
      "anonymous": false,
      "inputs": [
        {
          "indexed": false,
          "internalType": "uint256",
          "name": "id",
          "type": "uint256"
        },
        {
          "indexed": false,
          "internalType": "string",
          "name": "first_name",
          "type": "string"
        },
        {
          "indexed": false,
          "internalType": "string",
          "name": "last_name",
          "type": "string"
        },
        {
          "indexed": false,
          "internalType": "string",
          "name": "doj",
          "type": "string"
        },
        {
          "indexed": false,
          "internalType": "address",
          "name": "_address",
          "type": "address"
        },
        {
          "indexed": false,
          "internalType": "string",
          "name": "dol",
          "type": "string"
        },
        {
          "indexed": false,
          "internalType": "string",
          "name": "belongings",
          "type": "string"
        },
        {
          "indexed": false,
          "internalType": "string",
          "name": "medicalhistory",
          "type": "string"
        }
      ],
      "name": "Prisoner_Set",
      "type": "event"
    },
    {
      "anonymous": false,
      "inputs": [
        {
          "indexed": false,
          "internalType": "string",
          "name": "name",
          "type": "string"
        },
        {
          "indexed": false,
          "internalType": "string",
          "name": "job",
          "type": "string"
        }
      ],
      "name": "Prisoner_newJob",
      "type": "event"
    },
    {
      "anonymous": false,
      "inputs": [
        {
          "indexed": false,
          "internalType": "uint256",
          "name": "id",
          "type": "uint256"
        },
        {
          "indexed": false,
          "internalType": "string",
          "name": "first_name",
          "type": "string"
        },
        {
          "indexed": false,
          "internalType": "string",
          "name": "last_name",
          "type": "string"
        },
        {
          "indexed": false,
          "internalType": "string",
          "name": "dob",
          "type": "string"
        },
        {
          "indexed": false,
          "internalType": "address",
          "name": "_address",
          "type": "address"
        }
      ],
      "name": "Warden_Set",
      "type": "event"
    },
    {
      "anonymous": false,
      "inputs": [
        {
          "indexed": false,
          "internalType": "address",
          "name": "_address",
          "type": "address"
        },
        {
          "indexed": false,
          "internalType": "uint256",
          "name": "_oldcell",
          "type": "uint256"
        },
        {
          "indexed": false,
          "internalType": "uint256",
          "name": "_newcell",
          "type": "uint256"
        }
      ],
      "name": "prisoner_Transferred",
      "type": "event"
    },
    {
      "anonymous": false,
      "inputs": [
        {
          "indexed": false,
          "internalType": "address",
          "name": "_address",
          "type": "address"
        },
        {
          "indexed": false,
          "internalType": "uint256",
          "name": "_cell",
          "type": "uint256"
        }
      ],
      "name": "prisoner_newCell",
      "type": "event"
    },
    {
      "inputs": [
        {
          "internalType": "address",
          "name": "",
          "type": "address"
        }
      ],
      "name": "JobProvider",
      "outputs": [
        {
          "internalType": "uint256",
          "name": "id",
          "type": "uint256"
        },
        {
          "internalType": "string",
          "name": "name",
          "type": "string"
        },
        {
          "internalType": "string",
          "name": "jobs",
          "type": "string"
        }
      ],
      "stateMutability": "view",
      "type": "function"
    },
    {
      "inputs": [
        {
          "internalType": "address",
          "name": "",
          "type": "address"
        }
      ],
      "name": "Prisoner",
      "outputs": [
        {
          "internalType": "uint256",
          "name": "id",
          "type": "uint256"
        },
        {
          "internalType": "string",
          "name": "first_name",
          "type": "string"
        },
        {
          "internalType": "string",
          "name": "last_name",
          "type": "string"
        },
        {
          "internalType": "string",
          "name": "doj",
          "type": "string"
        },
        {
          "internalType": "string",
          "name": "dol",
          "type": "string"
        },
        {
          "internalType": "uint256",
          "name": "cell",
          "type": "uint256"
        },
        {
          "internalType": "string",
          "name": "belongings",
          "type": "string"
        },
        {
          "internalType": "string",
          "name": "medical",
          "type": "string"
        }
      ],
      "stateMutability": "view",
      "type": "function"
    },
    {
      "inputs": [
        {
          "internalType": "address",
          "name": "",
          "type": "address"
        }
      ],
      "name": "WorkingPrisoner",
      "outputs": [
        {
          "internalType": "string",
          "name": "work",
          "type": "string"
        }
      ],
      "stateMutability": "view",
      "type": "function"
    },
    {
      "inputs": [
        {
          "internalType": "uint256",
          "name": "",
          "type": "uint256"
        }
      ],
      "name": "prisoners",
      "outputs": [
        {
          "internalType": "address",
          "name": "",
          "type": "address"
        }
      ],
      "stateMutability": "view",
      "type": "function"
    },
    {
      "inputs": [
        {
          "internalType": "uint256",
          "name": "",
          "type": "uint256"
        }
      ],
      "name": "wardens",
      "outputs": [
        {
          "internalType": "address",
          "name": "",
          "type": "address"
        }
      ],
      "stateMutability": "view",
      "type": "function"
    },
    {
      "inputs": [
        {
          "internalType": "uint256",
          "name": "_id",
          "type": "uint256"
        },
        {
          "internalType": "string",
          "name": "_first_name",
          "type": "string"
        },
        {
          "internalType": "string",
          "name": "_last_name",
          "type": "string"
        },
        {
          "internalType": "string",
          "name": "_dob",
          "type": "string"
        },
        {
          "internalType": "address",
          "name": "_address",
          "type": "address"
        }
      ],
      "name": "set_Warden",
      "outputs": [],
      "stateMutability": "nonpayable",
      "type": "function"
    },
    {
      "inputs": [
        {
          "internalType": "uint256",
          "name": "_id",
          "type": "uint256"
        },
        {
          "internalType": "string",
          "name": "_first_name",
          "type": "string"
        },
        {
          "internalType": "string",
          "name": "_last_name",
          "type": "string"
        },
        {
          "internalType": "string",
          "name": "_doj",
          "type": "string"
        },
        {
          "internalType": "address",
          "name": "_address",
          "type": "address"
        },
        {
          "internalType": "string",
          "name": "_dol",
          "type": "string"
        },
        {
          "internalType": "string",
          "name": "_belongings",
          "type": "string"
        },
        {
          "internalType": "string",
          "name": "_medical",
          "type": "string"
        }
      ],
      "name": "set_Prisoner",
      "outputs": [],
      "stateMutability": "nonpayable",
      "type": "function"
    },
    {
      "inputs": [
        {
          "internalType": "uint256",
          "name": "_id",
          "type": "uint256"
        },
        {
          "internalType": "string",
          "name": "_name",
          "type": "string"
        },
        {
          "internalType": "string",
          "name": "_jobs",
          "type": "string"
        },
        {
          "internalType": "address",
          "name": "_address",
          "type": "address"
        }
      ],
      "name": "set_JobProvider",
      "outputs": [],
      "stateMutability": "nonpayable",
      "type": "function"
    },
    {
      "inputs": [
        {
          "internalType": "string",
          "name": "_jobs",
          "type": "string"
        }
      ],
      "name": "update_Jobs",
      "outputs": [],
      "stateMutability": "nonpayable",
      "type": "function"
    },
    {
      "inputs": [
        {
          "internalType": "string",
          "name": "_jobwork",
          "type": "string"
        },
        {
          "internalType": "address",
          "name": "_address",
          "type": "address"
        }
      ],
      "name": "set_Work",
      "outputs": [],
      "stateMutability": "nonpayable",
      "type": "function"
    },
    {
      "inputs": [
        {
          "internalType": "address",
          "name": "_address",
          "type": "address"
        },
        {
          "internalType": "uint256",
          "name": "_cell",
          "type": "uint256"
        }
      ],
      "name": "set_Cell",
      "outputs": [
        {
          "internalType": "bool",
          "name": "",
          "type": "bool"
        }
      ],
      "stateMutability": "nonpayable",
      "type": "function"
    }
  ],
  "bytecode": "0x608060405234801561001057600080fd5b50336000806101000a81548173ffffffffffffffffffffffffffffffffffffffff021916908373ffffffffffffffffffffffffffffffffffffffff160217905550612eb9806100606000396000f3fe608060405234801561001057600080fd5b50600436106100a95760003560e01c806355f543da1161007157806355f543da146105d4578063634e8dad146106af578063659b5435146109965780639cf153da14610ac6578063e017061a14610b83578063f958002e14610be9576100a9565b80630277be69146100ae57806312d53a6c146101695780631f822a47146101d75780632d34bf4d146103535780634894ac9c146103c1575b600080fd5b610167600480360360208110156100c457600080fd5b81019080803590602001906401000000008111156100e157600080fd5b8201836020820111156100f357600080fd5b8035906020019184600183028401116401000000008311171561011557600080fd5b91908080601f016020809104026020016040519081016040528093929190818152602001838380828437600081840152601f19601f820116905080830192505050505050509192919290505050610fc2565b005b6101956004803603602081101561017f57600080fd5b81019080803590602001909291905050506112b1565b604051808273ffffffffffffffffffffffffffffffffffffffff1673ffffffffffffffffffffffffffffffffffffffff16815260200191505060405180910390f35b610351600480360360808110156101ed57600080fd5b81019080803590602001909291908035906020019064010000000081111561021457600080fd5b82018360208201111561022657600080fd5b8035906020019184600183028401116401000000008311171561024857600080fd5b91908080601f016020809104026020016040519081016040528093929190818152602001838380828437600081840152601f19601f820116905080830192505050505050509192919290803590602001906401000000008111156102ab57600080fd5b8201836020820111156102bd57600080fd5b803590602001918460018302840111640100000000831117156102df57600080fd5b91908080601f016020809104026020016040519081016040528093929190818152602001838380828437600081840152601f19601f820116905080830192505050505050509192919290803573ffffffffffffffffffffffffffffffffffffffff1690602001909291905050506112ed565b005b61037f6004803603602081101561036957600080fd5b810190808035906020019092919050505061151c565b604051808273ffffffffffffffffffffffffffffffffffffffff1673ffffffffffffffffffffffffffffffffffffffff16815260200191505060405180910390f35b6105d2600480360360a08110156103d757600080fd5b8101908080359060200190929190803590602001906401000000008111156103fe57600080fd5b82018360208201111561041057600080fd5b8035906020019184600183028401116401000000008311171561043257600080fd5b91908080601f016020809104026020016040519081016040528093929190818152602001838380828437600081840152601f19601f8201169050808301925050505050505091929192908035906020019064010000000081111561049557600080fd5b8201836020820111156104a757600080fd5b803590602001918460018302840111640100000000831117156104c957600080fd5b91908080601f016020809104026020016040519081016040528093929190818152602001838380828437600081840152601f19601f8201169050808301925050505050505091929192908035906020019064010000000081111561052c57600080fd5b82018360208201111561053e57600080fd5b8035906020019184600183028401116401000000008311171561056057600080fd5b91908080601f016020809104026020016040519081016040528093929190818152602001838380828437600081840152601f19601f820116905080830192505050505050509192919290803573ffffffffffffffffffffffffffffffffffffffff169060200190929190505050611558565b005b6106ad600480360360408110156105ea57600080fd5b810190808035906020019064010000000081111561060757600080fd5b82018360208201111561061957600080fd5b8035906020019184600183028401116401000000008311171561063b57600080fd5b91908080601f016020809104026020016040519081016040528093929190818152602001838380828437600081840152601f19601f820116905080830192505050505050509192919290803573ffffffffffffffffffffffffffffffffffffffff1690602001909291905050506118b1565b005b6106f1600480360360208110156106c557600080fd5b81019080803573ffffffffffffffffffffffffffffffffffffffff169060200190929190505050611c72565b6040518089815260200180602001806020018060200180602001888152602001806020018060200187810387528e818151815260200191508051906020019080838360005b83811015610751578082015181840152602081019050610736565b50505050905090810190601f16801561077e5780820380516001836020036101000a031916815260200191505b5087810386528d818151815260200191508051906020019080838360005b838110156107b757808201518184015260208101905061079c565b50505050905090810190601f1680156107e45780820380516001836020036101000a031916815260200191505b5087810385528c818151815260200191508051906020019080838360005b8381101561081d578082015181840152602081019050610802565b50505050905090810190601f16801561084a5780820380516001836020036101000a031916815260200191505b5087810384528b818151815260200191508051906020019080838360005b83811015610883578082015181840152602081019050610868565b50505050905090810190601f1680156108b05780820380516001836020036101000a031916815260200191505b50878103835289818151815260200191508051906020019080838360005b838110156108e95780820151818401526020810190506108ce565b50505050905090810190601f1680156109165780820380516001836020036101000a031916815260200191505b50878103825288818151815260200191508051906020019080838360005b8381101561094f578082015181840152602081019050610934565b50505050905090810190601f16801561097c5780820380516001836020036101000a031916815260200191505b509e50505050505050505050505050505060405180910390f35b6109d8600480360360208110156109ac57600080fd5b81019080803573ffffffffffffffffffffffffffffffffffffffff16906020019092919050505061204a565b604051808481526020018060200180602001838103835285818151815260200191508051906020019080838360005b83811015610a22578082015181840152602081019050610a07565b50505050905090810190601f168015610a4f5780820380516001836020036101000a031916815260200191505b50838103825284818151815260200191508051906020019080838360005b83811015610a88578082015181840152602081019050610a6d565b50505050905090810190601f168015610ab55780820380516001836020036101000a031916815260200191505b509550505050505060405180910390f35b610b0860048036036020811015610adc57600080fd5b81019080803573ffffffffffffffffffffffffffffffffffffffff1690602001909291905050506121a4565b6040518080602001828103825283818151815260200191508051906020019080838360005b83811015610b48578082015181840152602081019050610b2d565b50505050905090810190601f168015610b755780820380516001836020036101000a031916815260200191505b509250505060405180910390f35b610bcf60048036036040811015610b9957600080fd5b81019080803573ffffffffffffffffffffffffffffffffffffffff1690602001909291908035906020019092919050505061225a565b604051808215151515815260200191505060405180910390f35b610fc06004803603610100811015610c0057600080fd5b810190808035906020019092919080359060200190640100000000811115610c2757600080fd5b820183602082011115610c3957600080fd5b80359060200191846001830284011164010000000083111715610c5b57600080fd5b91908080601f016020809104026020016040519081016040528093929190818152602001838380828437600081840152601f19601f82011690508083019250505050505050919291929080359060200190640100000000811115610cbe57600080fd5b820183602082011115610cd057600080fd5b80359060200191846001830284011164010000000083111715610cf257600080fd5b91908080601f016020809104026020016040519081016040528093929190818152602001838380828437600081840152601f19601f82011690508083019250505050505050919291929080359060200190640100000000811115610d5557600080fd5b820183602082011115610d6757600080fd5b80359060200191846001830284011164010000000083111715610d8957600080fd5b91908080601f016020809104026020016040519081016040528093929190818152602001838380828437600081840152601f19601f820116905080830192505050505050509192919290803573ffffffffffffffffffffffffffffffffffffffff16906020019092919080359060200190640100000000811115610e0c57600080fd5b820183602082011115610e1e57600080fd5b80359060200191846001830284011164010000000083111715610e4057600080fd5b91908080601f016020809104026020016040519081016040528093929190818152602001838380828437600081840152601f19601f82011690508083019250505050505050919291929080359060200190640100000000811115610ea357600080fd5b820183602082011115610eb557600080fd5b80359060200191846001830284011164010000000083111715610ed757600080fd5b91908080601f016020809104026020016040519081016040528093929190818152602001838380828437600081840152601f19601f82011690508083019250505050505050919291929080359060200190640100000000811115610f3a57600080fd5b820183602082011115610f4c57600080fd5b80359060200191846001830284011164010000000083111715610f6e57600080fd5b91908080601f016020809104026020016040519081016040528093929190818152602001838380828437600081840152601f19601f82011690508083019250505050505050919291929050505061250f565b005b6000600460003373ffffffffffffffffffffffffffffffffffffffff1673ffffffffffffffffffffffffffffffffffffffff16815260200190815260200160002060000154141561105e576040517f08c379a000000000000000000000000000000000000000000000000000000000815260040180806020018281038252602b815260200180612ded602b913960400191505060405180910390fd5b60001515611146600460003373ffffffffffffffffffffffffffffffffffffffff1673ffffffffffffffffffffffffffffffffffffffff1681526020019081526020016000206002018054600181600116156101000203166002900480601f01602080910402602001604051908101604052809291908181526020018280546001816001161561010002031660029004801561113b5780601f106111105761010080835404028352916020019161113b565b820191906000526020600020905b81548152906001019060200180831161111e57829003601f168201915b5050505050836129bd565b1515146111bb576040517f08c379a00000000000000000000000000000000000000000000000000000000081526004018080602001828103825260128152602001807f557064617465206d757374206265206d6574000000000000000000000000000081525060200191505060405180910390fd5b80600460003373ffffffffffffffffffffffffffffffffffffffff1673ffffffffffffffffffffffffffffffffffffffff1681526020019081526020016000206002019080519060200190611211929190612d22565b507f9e33f5b213dab3748e6badb97ca4baf250657a625b4fb560801e50003e9ec005816040518080602001828103825283818151815260200191508051906020019080838360005b83811015611274578082015181840152602081019050611259565b50505050905090810190601f1680156112a15780820380516001836020036101000a031916815260200191505b509250505060405180910390a150565b600281815481106112be57fe5b906000526020600020016000915054906101000a900473ffffffffffffffffffffffffffffffffffffffff1681565b600115156112fa33612abf565b151514611352576040517f08c379a0000000000000000000000000000000000000000000000000000000008152600401808060200182810382526025815260200180612dc86025913960400191505060405180910390fd5b6000600460008373ffffffffffffffffffffffffffffffffffffffff1673ffffffffffffffffffffffffffffffffffffffff1681526020019081526020016000209050848160000181905550838160010190805190602001906113b6929190612d22565b50828160020190805190602001906113cf929190612d22565b507fee0a9fcdeb399f439d300266235b31f90456a4d6fd4582d23bd3ad0d974eedfe858585856040518085815260200180602001806020018473ffffffffffffffffffffffffffffffffffffffff1673ffffffffffffffffffffffffffffffffffffffff168152602001838103835286818151815260200191508051906020019080838360005b83811015611471578082015181840152602081019050611456565b50505050905090810190601f16801561149e5780820380516001836020036101000a031916815260200191505b50838103825285818151815260200191508051906020019080838360005b838110156114d75780820151818401526020810190506114bc565b50505050905090810190601f1680156115045780820380516001836020036101000a031916815260200191505b50965050505050505060405180910390a15050505050565b6006818154811061152957fe5b906000526020600020016000915054906101000a900473ffffffffffffffffffffffffffffffffffffffff1681565b6000809054906101000a900473ffffffffffffffffffffffffffffffffffffffff1673ffffffffffffffffffffffffffffffffffffffff163373ffffffffffffffffffffffffffffffffffffffff16146115fd576040517f08c379a0000000000000000000000000000000000000000000000000000000008152600401808060200182810382526027815260200180612e3a6027913960400191505060405180910390fd5b6000600160008373ffffffffffffffffffffffffffffffffffffffff1673ffffffffffffffffffffffffffffffffffffffff168152602001908152602001600020905085816000018190555084816001019080519060200190611661929190612d22565b508381600201908051906020019061167a929190612d22565b5082816003019080519060200190611693929190612d22565b506002829080600181540180825580915050600190039060005260206000200160009091909190916101000a81548173ffffffffffffffffffffffffffffffffffffffff021916908373ffffffffffffffffffffffffffffffffffffffff1602179055507f26378e749e3ab3b999f8026861367f44aafb4f3ba720b080bc230a7d84522f348686868686604051808681526020018060200180602001806020018573ffffffffffffffffffffffffffffffffffffffff1673ffffffffffffffffffffffffffffffffffffffff168152602001848103845288818151815260200191508051906020019080838360005b8381101561179d578082015181840152602081019050611782565b50505050905090810190601f1680156117ca5780820380516001836020036101000a031916815260200191505b50848103835287818151815260200191508051906020019080838360005b838110156118035780820151818401526020810190506117e8565b50505050905090810190601f1680156118305780820380516001836020036101000a031916815260200191505b50848103825286818151815260200191508051906020019080838360005b8381101561186957808201518184015260208101905061184e565b50505050905090810190601f1680156118965780820380516001836020036101000a031916815260200191505b509850505050505050505060405180910390a1505050505050565b6000600460003373ffffffffffffffffffffffffffffffffffffffff1673ffffffffffffffffffffffffffffffffffffffff16815260200190815260200160002060000154141561194d576040517f08c379a000000000000000000000000000000000000000000000000000000000815260040180806020018281038252602b815260200180612ded602b913960400191505060405180910390fd5b60001515611a35600360008473ffffffffffffffffffffffffffffffffffffffff1673ffffffffffffffffffffffffffffffffffffffff1681526020019081526020016000206000018054600181600116156101000203166002900480601f016020809104026020016040519081016040528092919081815260200182805460018160011615610100020316600290048015611a2a5780601f106119ff57610100808354040283529160200191611a2a565b820191906000526020600020905b815481529060010190602001808311611a0d57829003601f168201915b5050505050846129bd565b151514611aaa576040517f08c379a00000000000000000000000000000000000000000000000000000000081526004018080602001828103825260128152602001807f557064617465206d757374206265206d6574000000000000000000000000000081525060200191505060405180910390fd5b6000600360008373ffffffffffffffffffffffffffffffffffffffff1673ffffffffffffffffffffffffffffffffffffffff168152602001908152602001600020905082816000019080519060200190611b05929190612d22565b507fde498ecec6db88d3df573139e1401a5607691012d649bea46be2a7b0edb77a78600560008473ffffffffffffffffffffffffffffffffffffffff1673ffffffffffffffffffffffffffffffffffffffff16815260200190815260200160002060010184604051808060200180602001838103835285818154600181600116156101000203166002900481526020019150805460018160011615610100020316600290048015611bf75780601f10611bcc57610100808354040283529160200191611bf7565b820191906000526020600020905b815481529060010190602001808311611bda57829003601f168201915b5050838103825284818151815260200191508051906020019080838360005b83811015611c31578082015181840152602081019050611c16565b50505050905090810190601f168015611c5e5780820380516001836020036101000a031916815260200191505b5094505050505060405180910390a1505050565b6005602052806000526040600020600091509050806000015490806001018054600181600116156101000203166002900480601f016020809104026020016040519081016040528092919081815260200182805460018160011615610100020316600290048015611d245780601f10611cf957610100808354040283529160200191611d24565b820191906000526020600020905b815481529060010190602001808311611d0757829003601f168201915b505050505090806002018054600181600116156101000203166002900480601f016020809104026020016040519081016040528092919081815260200182805460018160011615610100020316600290048015611dc25780601f10611d9757610100808354040283529160200191611dc2565b820191906000526020600020905b815481529060010190602001808311611da557829003601f168201915b505050505090806003018054600181600116156101000203166002900480601f016020809104026020016040519081016040528092919081815260200182805460018160011615610100020316600290048015611e605780601f10611e3557610100808354040283529160200191611e60565b820191906000526020600020905b815481529060010190602001808311611e4357829003601f168201915b505050505090806004018054600181600116156101000203166002900480601f016020809104026020016040519081016040528092919081815260200182805460018160011615610100020316600290048015611efe5780601f10611ed357610100808354040283529160200191611efe565b820191906000526020600020905b815481529060010190602001808311611ee157829003601f168201915b505050505090806005015490806006018054600181600116156101000203166002900480601f016020809104026020016040519081016040528092919081815260200182805460018160011615610100020316600290048015611fa25780601f10611f7757610100808354040283529160200191611fa2565b820191906000526020600020905b815481529060010190602001808311611f8557829003601f168201915b505050505090806007018054600181600116156101000203166002900480601f0160208091040260200160405190810160405280929190818152602001828054600181600116156101000203166002900480156120405780601f1061201557610100808354040283529160200191612040565b820191906000526020600020905b81548152906001019060200180831161202357829003601f168201915b5050505050905088565b6004602052806000526040600020600091509050806000015490806001018054600181600116156101000203166002900480601f0160208091040260200160405190810160405280929190818152602001828054600181600116156101000203166002900480156120fc5780601f106120d1576101008083540402835291602001916120fc565b820191906000526020600020905b8154815290600101906020018083116120df57829003601f168201915b505050505090806002018054600181600116156101000203166002900480601f01602080910402602001604051908101604052809291908181526020018280546001816001161561010002031660029004801561219a5780601f1061216f5761010080835404028352916020019161219a565b820191906000526020600020905b81548152906001019060200180831161217d57829003601f168201915b5050505050905083565b6003602052806000526040600020600091509050806000018054600181600116156101000203166002900480601f0160208091040260200160405190810160405280929190818152602001828054600181600116156101000203166002900480156122505780601f1061222557610100808354040283529160200191612250565b820191906000526020600020905b81548152906001019060200180831161223357829003601f168201915b5050505050905081565b60006001151561226933612abf565b1515146122c1576040517f08c379a0000000000000000000000000000000000000000000000000000000008152600401808060200182810382526023815260200180612e616023913960400191505060405180910390fd5b600115156122ce84612b6c565b151514612343576040517f08c379a000000000000000000000000000000000000000000000000000000000815260040180806020018281038252601e8152602001807f4f6e6c7920507269736f6e6572732063616e20626520696e2043656c6c73000081525060200191505060405180910390fd5b6000600560008573ffffffffffffffffffffffffffffffffffffffff1673ffffffffffffffffffffffffffffffffffffffff1681526020019081526020016000206005015414156124455781600560008573ffffffffffffffffffffffffffffffffffffffff1673ffffffffffffffffffffffffffffffffffffffff168152602001908152602001600020600501819055507f745af81677a0d8142530f2790dc6db26cf90b9f080b7ebdf3636c25ed4ac9d298383604051808373ffffffffffffffffffffffffffffffffffffffff1673ffffffffffffffffffffffffffffffffffffffff1681526020018281526020019250505060405180910390a1612509565b81600560008573ffffffffffffffffffffffffffffffffffffffff1673ffffffffffffffffffffffffffffffffffffffff1681526020019081526020016000206005015414156124fd576040517f08c379a00000000000000000000000000000000000000000000000000000000081526004018080602001828103825260208152602001807f4f6c6420616e64204e65772043656c6c2063616e6e6f742062652053616d652181525060200191505060405180910390fd5b6125078383612c19565b505b92915050565b6001151561251c33612abf565b151514612574576040517f08c379a0000000000000000000000000000000000000000000000000000000008152600401808060200182810382526022815260200180612e186022913960400191505060405180910390fd5b6000600560008673ffffffffffffffffffffffffffffffffffffffff1673ffffffffffffffffffffffffffffffffffffffff1681526020019081526020016000209050888160000181905550878160010190805190602001906125d8929190612d22565b50868160020190805190602001906125f1929190612d22565b508581600301908051906020019061260a929190612d22565b5083816004019080519060200190612623929190612d22565b508281600601908051906020019061263c929190612d22565b5081816007019080519060200190612655929190612d22565b506006859080600181540180825580915050600190039060005260206000200160009091909190916101000a81548173ffffffffffffffffffffffffffffffffffffffff021916908373ffffffffffffffffffffffffffffffffffffffff1602179055507ff80585ed02832f609ac5e0b29943c415c5ed9508a08389347a23f8cd75bbf7028989898989898989604051808981526020018060200180602001806020018873ffffffffffffffffffffffffffffffffffffffff1673ffffffffffffffffffffffffffffffffffffffff16815260200180602001806020018060200187810387528e818151815260200191508051906020019080838360005b8381101561276e578082015181840152602081019050612753565b50505050905090810190601f16801561279b5780820380516001836020036101000a031916815260200191505b5087810386528d818151815260200191508051906020019080838360005b838110156127d45780820151818401526020810190506127b9565b50505050905090810190601f1680156128015780820380516001836020036101000a031916815260200191505b5087810385528c818151815260200191508051906020019080838360005b8381101561283a57808201518184015260208101905061281f565b50505050905090810190601f1680156128675780820380516001836020036101000a031916815260200191505b5087810384528a818151815260200191508051906020019080838360005b838110156128a0578082015181840152602081019050612885565b50505050905090810190601f1680156128cd5780820380516001836020036101000a031916815260200191505b50878103835289818151815260200191508051906020019080838360005b838110156129065780820151818401526020810190506128eb565b50505050905090810190601f1680156129335780820380516001836020036101000a031916815260200191505b50878103825288818151815260200191508051906020019080838360005b8381101561296c578082015181840152602081019050612951565b50505050905090810190601f1680156129995780820380516001836020036101000a031916815260200191505b509e50505050505050505050505050505060405180910390a1505050505050505050565b600081518351146129d15760009050612ab9565b816040516020018082805190602001908083835b60208310612a0857805182526020820191506020810190506020830392506129e5565b6001836020036101000a03801982511681845116808217855250505050505090500191505060405160208183030381529060405280519060200120836040516020018082805190602001908083835b60208310612a7a5780518252602082019150602081019050602083039250612a57565b6001836020036101000a038019825116818451168082178552505050505050905001915050604051602081830303815290604052805190602001201490505b92915050565b6000806000905060008090505b6002805490508163ffffffff161015612b625760028163ffffffff1681548110612af257fe5b9060005260206000200160009054906101000a900473ffffffffffffffffffffffffffffffffffffffff1673ffffffffffffffffffffffffffffffffffffffff168473ffffffffffffffffffffffffffffffffffffffff161415612b5557600191505b8080600101915050612acc565b5080915050919050565b6000806000905060008090505b6006805490508163ffffffff161015612c0f5760068163ffffffff1681548110612b9f57fe5b9060005260206000200160009054906101000a900473ffffffffffffffffffffffffffffffffffffffff1673ffffffffffffffffffffffffffffffffffffffff168473ffffffffffffffffffffffffffffffffffffffff161415612c0257600191505b8080600101915050612b79565b5080915050919050565b600080600560008573ffffffffffffffffffffffffffffffffffffffff1673ffffffffffffffffffffffffffffffffffffffff16815260200190815260200160002060050154905082600560008673ffffffffffffffffffffffffffffffffffffffff1673ffffffffffffffffffffffffffffffffffffffff168152602001908152602001600020600501819055507f93e4f4bf448c1b561f857579a03b39f48af6a7a72200deb83b1f2d923a993443848285604051808473ffffffffffffffffffffffffffffffffffffffff1673ffffffffffffffffffffffffffffffffffffffff168152602001838152602001828152602001935050505060405180910390a15092915050565b828054600181600116156101000203166002900490600052602060002090601f016020900481019282601f10612d6357805160ff1916838001178555612d91565b82800160010185558215612d91579182015b82811115612d90578251825591602001919060010190612d75565b5b509050612d9e9190612da2565b5090565b612dc491905b80821115612dc0576000816000905550600101612da8565b5090565b9056fe4f6e6c792057617264656e2063616e20416464206e6577204a6f622050726f7669646572214f6e6c79204a6f622050726f7669646572732063616e2061636365737320746869732066756e6374696f6e4f6e6c792057617264656e2063616e20416464206e657720507269736f6e657273214f6e6c792041646d696e206861732041636365737320746f20746869732046756e6374696f6e214f6e6c792057617264656e2063616e2061737369676e2063656c6c206e756d62657273a2646970667358221220ef073d86a2ab1c2edc57e8875695a0bc778d8623dee331caa52a033ad040d52a64736f6c63430006070033",
  "immutableReferences": {},
  "source": "pragma solidity 0.6.7;\n\ncontract prisonManagement {\n\taddress private admin;\n  \n\t//Modifiers\n\tmodifier onlyAdmin(){\n  \trequire(msg.sender==admin,\"Only Admin has Access to this Function!\");_;\n  }\n\n\n  //Events\n  event Warden_Set(\n  \tuint id,\n  \tstring first_name,\n  \tstring last_name,\n  \tstring dob,\n  \taddress _address);\n\n    event Prisoner_Set(\n  \tuint id,\n  \tstring first_name,\n  \tstring last_name,\n  \tstring doj,\n  \taddress _address,\n  \tstring dol,\n  \tstring belongings,\n  \tstring medicalhistory);\n\n  \tevent prisoner_newCell(\n  \t\taddress _address,\n  \t\tuint _cell);\n\n  \tevent prisoner_Transferred(\n  \t\taddress _address,\n  \t\tuint _oldcell,\n  \t\tuint _newcell);\n\n  \tevent JobProvider_Set(\n  \t\tuint id,\n  \t\tstring name,\n  \t\tstring jobs,\n  \t\taddress _address);\n\n  \tevent Jobs_Updated(\n  \t\tstring jobs);\n\n  \tevent Prisoner_newJob(\n  \t\tstring name,\n  \t\tstring job);\n\n  constructor() public {\n  \tadmin=msg.sender;\n  }\n\n  struct warden{\n  \tuint id;\n  \tstring first_name;\n  \tstring last_name;\n  \tstring dob;\n  }\n\n  mapping (address => warden) Warden;\n  address[] public wardens;\n\n  struct prisoner{\n  \tuint id;\n  \tstring first_name;\n  \tstring last_name;\n  \tstring doj;\n  \tstring dol;\n  \tuint cell;\n  \tstring belongings;\n  \tstring medical;\n  \t//string job;\n  }\n\n  struct jobProvider{\n  \tuint id;\n  \tstring name;\n  \tstring jobs;\n  }\n\n  struct workingJobs{\n  \tstring work;\n    }\n\n  mapping(address => workingJobs) public WorkingPrisoner;\n\n  mapping (address => jobProvider) public JobProvider;\n\n\n  mapping (address => prisoner) public Prisoner;\n  address[] public prisoners;\n\n  function set_Warden(uint _id, string memory _first_name, string memory _last_name, string memory _dob, address _address) public onlyAdmin() {\n  \twarden storage Person = Warden[_address];\n  \tPerson.id=_id;\n  \tPerson.first_name=_first_name;\n  \tPerson.last_name=_last_name;\n  \tPerson.dob=_dob;\n  \twardens.push(_address);\n  \temit Warden_Set(_id,_first_name,_last_name,_dob,_address);\n  }\n\n  function set_Prisoner(uint _id, string memory _first_name, string memory _last_name,string memory _doj, address _address,string memory _dol,string memory _belongings,string memory _medical) public {\n  \trequire(checkWarden(msg.sender)==true,\"Only Warden can Add new Prisoners!\");\n  \tprisoner storage Person = Prisoner[_address];\n  \tPerson.id=_id;\n  \tPerson.first_name=_first_name;\n  \tPerson.last_name=_last_name;\n  \tPerson.doj=_doj;\n  \tPerson.dol=_dol;\n  \tPerson.belongings=_belongings;\n  \tPerson.medical=_medical;\n  \tprisoners.push(_address);\n  \temit Prisoner_Set(_id,_first_name,_last_name,_doj,_address,_dol,_belongings,_medical);\n  }\n\n  function set_JobProvider(uint _id,string memory _name, string memory _jobs,address _address) public {\n  \trequire(checkWarden(msg.sender)==true,\"Only Warden can Add new Job Provider!\");\n  \tjobProvider storage Person = JobProvider[_address];\n  \tPerson.id=_id;\n  \tPerson.name=_name;\n  \tPerson.jobs=_jobs;\n  \temit JobProvider_Set(_id,_name,_jobs,_address);\n  }\n\n  function update_Jobs(string memory _jobs) public {\n  \trequire(JobProvider[msg.sender].id!=0,\"Only Job Providers can access this function\");\n  \trequire(hashCompareWithLengthCheck(JobProvider[msg.sender].jobs,_jobs)==false,\"Update must be met\");\n  \tJobProvider[msg.sender].jobs=_jobs;\n  \temit Jobs_Updated(_jobs);\n  }\n\n  function set_Work(string memory _jobwork, address _address) public {\n  \trequire(JobProvider[msg.sender].id!=0,\"Only Job Providers can access this function\");\n  \trequire(hashCompareWithLengthCheck(WorkingPrisoner[_address].work,_jobwork)==false,\"Update must be met\");\n  \tworkingJobs storage Person = WorkingPrisoner[_address];\n  \tPerson.work = _jobwork;\n  \temit Prisoner_newJob(Prisoner[_address].first_name,_jobwork);\n  }\n\n  function checkWarden(address _address) private view returns(bool){\n        bool c=false;\n        for(uint32 i=0;i<wardens.length;i++){\n            if(_address==wardens[i])\n              c=true;\n        }\n        return(c);\n    }\n\n  function set_Cell(address _address,uint _cell) public returns(bool){\n  \trequire(checkWarden(msg.sender)==true,\"Only Warden can assign cell numbers\");\n  \trequire(checkPrisoner(_address)==true,\"Only Prisoners can be in Cells\");\n  \tif(Prisoner[_address].cell==0){\n  \t\tPrisoner[_address].cell=_cell;\n  \t\temit prisoner_newCell(_address,_cell);\n  \t} else {\n  \t\trequire(Prisoner[_address].cell!=_cell,\"Old and New Cell cannot be Same!\");\n  \t\tprisoner_Transfer(_address,_cell);\n  \t}\n\n  }\n\n  function prisoner_Transfer(address _address,uint _newcell) private returns(bool){\n  \tuint oldcell;\n  \toldcell = Prisoner[_address].cell;\n  \tPrisoner[_address].cell=_newcell;\n  \temit prisoner_Transferred(_address,oldcell,_newcell);\n  }\n\n  function checkPrisoner(address _address) private view returns(bool){\n      bool c=false;\n      for(uint32 i=0;i<prisoners.length;i++){\n          if(_address==prisoners[i])\n            c=true;\n      }\n      return(c);\n  }\n\n    function hashCompareWithLengthCheck(string memory a,string memory b) private pure returns(bool){\n    if(bytes(a).length != bytes(b).length) {\n        return false;\n    \t} else {\n        return keccak256(abi.encodePacked(a)) == keccak256(abi.encodePacked(b));\n    \t}\n\t\t}\n}\n\n\n\n\n",
  "sourcePath": "C:\\Users\\Aaryamann\\Desktop\\prisonManagement\\contracts\\prisonManagement.sol",
  "compiler": {
    "name": "solc",
    "version": "0.6.7+commit.b8d736ae.Emscripten.clang"
  },
  "schemaVersion": "3.1.0",
  "updatedAt": "2020-05-26T05:58:53.796Z",
  "devdoc": {
    "methods": {}
  },
  "userdoc": {
    "methods": {}
  }
}