{
  "contractName": "prisonManagement",
  "abi": [
    {
      "inputs": [],
      "stateMutability": "nonpayable",
      "type": "constructor"
    },
    {
      "anonymous": false,
      "inputs": [
        {
          "indexed": false,
          "internalType": "uint256",
          "name": "id",
          "type": "uint256"
        },
        {
          "indexed": false,
          "internalType": "string",
          "name": "name",
          "type": "string"
        },
        {
          "indexed": false,
          "internalType": "string",
          "name": "jobs",
          "type": "string"
        },
        {
          "indexed": false,
          "internalType": "address",
          "name": "_address",
          "type": "address"
        }
      ],
      "name": "JobProvider_Set",
      "type": "event"
    },
    {
      "anonymous": false,
      "inputs": [
        {
          "indexed": false,
          "internalType": "string",
          "name": "jobs",
          "type": "string"
        }
      ],
      "name": "Jobs_Updated",
      "type": "event"
    },
    {
      "anonymous": false,
      "inputs": [
        {
          "indexed": false,
          "internalType": "uint256",
          "name": "id",
          "type": "uint256"
        },
        {
          "indexed": false,
          "internalType": "string",
          "name": "first_name",
          "type": "string"
        },
        {
          "indexed": false,
          "internalType": "string",
          "name": "last_name",
          "type": "string"
        },
        {
          "indexed": false,
          "internalType": "string",
          "name": "doj",
          "type": "string"
        },
        {
          "indexed": false,
          "internalType": "address",
          "name": "_address",
          "type": "address"
        },
        {
          "indexed": false,
          "internalType": "string",
          "name": "dol",
          "type": "string"
        },
        {
          "indexed": false,
          "internalType": "string",
          "name": "belongings",
          "type": "string"
        },
        {
          "indexed": false,
          "internalType": "string",
          "name": "medicalhistory",
          "type": "string"
        }
      ],
      "name": "Prisoner_Set",
      "type": "event"
    },
    {
      "anonymous": false,
      "inputs": [
        {
          "indexed": false,
          "internalType": "string",
          "name": "name",
          "type": "string"
        },
        {
          "indexed": false,
          "internalType": "string",
          "name": "job",
          "type": "string"
        }
      ],
      "name": "Prisoner_newJob",
      "type": "event"
    },
    {
      "anonymous": false,
      "inputs": [
        {
          "indexed": false,
          "internalType": "uint256",
          "name": "id",
          "type": "uint256"
        },
        {
          "indexed": false,
          "internalType": "string",
          "name": "first_name",
          "type": "string"
        },
        {
          "indexed": false,
          "internalType": "string",
          "name": "last_name",
          "type": "string"
        },
        {
          "indexed": false,
          "internalType": "string",
          "name": "dob",
          "type": "string"
        },
        {
          "indexed": false,
          "internalType": "address",
          "name": "_address",
          "type": "address"
        }
      ],
      "name": "Warden_Set",
      "type": "event"
    },
    {
      "anonymous": false,
      "inputs": [
        {
          "indexed": false,
          "internalType": "string",
          "name": "name",
          "type": "string"
        },
        {
          "indexed": false,
          "internalType": "address",
          "name": "_address",
          "type": "address"
        }
      ],
      "name": "new_Security",
      "type": "event"
    },
    {
      "anonymous": false,
      "inputs": [
        {
          "indexed": false,
          "internalType": "address",
          "name": "_address",
          "type": "address"
        },
        {
          "indexed": false,
          "internalType": "uint256",
          "name": "_oldcell",
          "type": "uint256"
        },
        {
          "indexed": false,
          "internalType": "uint256",
          "name": "_newcell",
          "type": "uint256"
        }
      ],
      "name": "prisoner_Transferred",
      "type": "event"
    },
    {
      "anonymous": false,
      "inputs": [
        {
          "indexed": false,
          "internalType": "address",
          "name": "_address",
          "type": "address"
        },
        {
          "indexed": false,
          "internalType": "uint256",
          "name": "_cell",
          "type": "uint256"
        }
      ],
      "name": "prisoner_newCell",
      "type": "event"
    },
    {
      "anonymous": false,
      "inputs": [
        {
          "indexed": false,
          "internalType": "string",
          "name": "name",
          "type": "string"
        },
        {
          "indexed": false,
          "internalType": "string",
          "name": "oldassignment",
          "type": "string"
        },
        {
          "indexed": false,
          "internalType": "string",
          "name": "newassignment",
          "type": "string"
        }
      ],
      "name": "security_changedAssignment",
      "type": "event"
    },
    {
      "anonymous": false,
      "inputs": [
        {
          "indexed": false,
          "internalType": "string",
          "name": "name",
          "type": "string"
        },
        {
          "indexed": false,
          "internalType": "string",
          "name": "assignment",
          "type": "string"
        }
      ],
      "name": "security_newAssignment",
      "type": "event"
    },
    {
      "inputs": [
        {
          "internalType": "address",
          "name": "",
          "type": "address"
        }
      ],
      "name": "JobProvider",
      "outputs": [
        {
          "internalType": "uint256",
          "name": "id",
          "type": "uint256"
        },
        {
          "internalType": "string",
          "name": "name",
          "type": "string"
        },
        {
          "internalType": "string",
          "name": "jobs",
          "type": "string"
        }
      ],
      "stateMutability": "view",
      "type": "function"
    },
    {
      "inputs": [
        {
          "internalType": "address",
          "name": "",
          "type": "address"
        }
      ],
      "name": "Prisoner",
      "outputs": [
        {
          "internalType": "uint256",
          "name": "id",
          "type": "uint256"
        },
        {
          "internalType": "string",
          "name": "first_name",
          "type": "string"
        },
        {
          "internalType": "string",
          "name": "last_name",
          "type": "string"
        },
        {
          "internalType": "string",
          "name": "doj",
          "type": "string"
        },
        {
          "internalType": "string",
          "name": "dol",
          "type": "string"
        },
        {
          "internalType": "uint256",
          "name": "cell",
          "type": "uint256"
        },
        {
          "internalType": "string",
          "name": "belongings",
          "type": "string"
        },
        {
          "internalType": "string",
          "name": "medical",
          "type": "string"
        }
      ],
      "stateMutability": "view",
      "type": "function"
    },
    {
      "inputs": [
        {
          "internalType": "address",
          "name": "",
          "type": "address"
        }
      ],
      "name": "WorkingPrisoner",
      "outputs": [
        {
          "internalType": "string",
          "name": "work",
          "type": "string"
        }
      ],
      "stateMutability": "view",
      "type": "function"
    },
    {
      "inputs": [
        {
          "internalType": "uint256",
          "name": "",
          "type": "uint256"
        }
      ],
      "name": "prisoners",
      "outputs": [
        {
          "internalType": "address",
          "name": "",
          "type": "address"
        }
      ],
      "stateMutability": "view",
      "type": "function"
    },
    {
      "inputs": [
        {
          "internalType": "address",
          "name": "",
          "type": "address"
        }
      ],
      "name": "security",
      "outputs": [
        {
          "internalType": "uint256",
          "name": "id",
          "type": "uint256"
        },
        {
          "internalType": "string",
          "name": "name",
          "type": "string"
        },
        {
          "internalType": "string",
          "name": "assignment",
          "type": "string"
        }
      ],
      "stateMutability": "view",
      "type": "function"
    },
    {
      "inputs": [
        {
          "internalType": "uint256",
          "name": "",
          "type": "uint256"
        }
      ],
      "name": "wardens",
      "outputs": [
        {
          "internalType": "address",
          "name": "",
          "type": "address"
        }
      ],
      "stateMutability": "view",
      "type": "function"
    },
    {
      "inputs": [
        {
          "internalType": "uint256",
          "name": "_id",
          "type": "uint256"
        },
        {
          "internalType": "string",
          "name": "_first_name",
          "type": "string"
        },
        {
          "internalType": "string",
          "name": "_last_name",
          "type": "string"
        },
        {
          "internalType": "string",
          "name": "_dob",
          "type": "string"
        },
        {
          "internalType": "address",
          "name": "_address",
          "type": "address"
        }
      ],
      "name": "set_Warden",
      "outputs": [],
      "stateMutability": "nonpayable",
      "type": "function"
    },
    {
      "inputs": [
        {
          "internalType": "uint256",
          "name": "_id",
          "type": "uint256"
        },
        {
          "internalType": "string",
          "name": "_first_name",
          "type": "string"
        },
        {
          "internalType": "string",
          "name": "_last_name",
          "type": "string"
        },
        {
          "internalType": "string",
          "name": "_doj",
          "type": "string"
        },
        {
          "internalType": "address",
          "name": "_address",
          "type": "address"
        },
        {
          "internalType": "string",
          "name": "_dol",
          "type": "string"
        },
        {
          "internalType": "string",
          "name": "_belongings",
          "type": "string"
        },
        {
          "internalType": "string",
          "name": "_medical",
          "type": "string"
        }
      ],
      "name": "set_Prisoner",
      "outputs": [],
      "stateMutability": "nonpayable",
      "type": "function"
    },
    {
      "inputs": [
        {
          "internalType": "uint256",
          "name": "_id",
          "type": "uint256"
        },
        {
          "internalType": "string",
          "name": "_name",
          "type": "string"
        },
        {
          "internalType": "string",
          "name": "_jobs",
          "type": "string"
        },
        {
          "internalType": "address",
          "name": "_address",
          "type": "address"
        }
      ],
      "name": "set_JobProvider",
      "outputs": [],
      "stateMutability": "nonpayable",
      "type": "function"
    },
    {
      "inputs": [
        {
          "internalType": "string",
          "name": "_jobs",
          "type": "string"
        }
      ],
      "name": "update_Jobs",
      "outputs": [],
      "stateMutability": "nonpayable",
      "type": "function"
    },
    {
      "inputs": [
        {
          "internalType": "string",
          "name": "_jobwork",
          "type": "string"
        },
        {
          "internalType": "address",
          "name": "_address",
          "type": "address"
        }
      ],
      "name": "set_Work",
      "outputs": [],
      "stateMutability": "nonpayable",
      "type": "function"
    },
    {
      "inputs": [
        {
          "internalType": "uint256",
          "name": "_id",
          "type": "uint256"
        },
        {
          "internalType": "string",
          "name": "_name",
          "type": "string"
        },
        {
          "internalType": "address",
          "name": "_address",
          "type": "address"
        }
      ],
      "name": "set_Security",
      "outputs": [],
      "stateMutability": "nonpayable",
      "type": "function"
    },
    {
      "inputs": [
        {
          "internalType": "address",
          "name": "_address",
          "type": "address"
        },
        {
          "internalType": "string",
          "name": "_assignment",
          "type": "string"
        }
      ],
      "name": "set_AssignmentSecurity",
      "outputs": [],
      "stateMutability": "nonpayable",
      "type": "function"
    },
    {
      "inputs": [
        {
          "internalType": "address",
          "name": "_address",
          "type": "address"
        },
        {
          "internalType": "uint256",
          "name": "_cell",
          "type": "uint256"
        }
      ],
      "name": "set_Cell",
      "outputs": [
        {
          "internalType": "bool",
          "name": "",
          "type": "bool"
        }
      ],
      "stateMutability": "nonpayable",
      "type": "function"
    }
  ],
  "bytecode": "0x608060405234801561001057600080fd5b50336000806101000a81548173ffffffffffffffffffffffffffffffffffffffff021916908373ffffffffffffffffffffffffffffffffffffffff160217905550613dd0806100606000396000f3fe608060405234801561001057600080fd5b50600436106100ea5760003560e01c806355f543da1161008c5780639cf153da116100665780639cf153da14610d12578063e017061a14610dcf578063f958002e14610e35578063fc5380f71461120e576100ea565b806355f543da14610820578063634e8dad146108fb578063659b543514610be2576100ea565b806321484f29116100c857806321484f29146103945780632d34bf4d146104c45780634894ac9c146105325780634baef3a814610745576100ea565b80630277be69146100ef57806312d53a6c146101aa5780631f822a4714610218575b600080fd5b6101a86004803603602081101561010557600080fd5b810190808035906020019064010000000081111561012257600080fd5b82018360208201111561013457600080fd5b8035906020019184600183028401116401000000008311171561015657600080fd5b91908080601f016020809104026020016040519081016040528093929190818152602001838380828437600081840152601f19601f8201169050808301925050505050505091929192905050506112f3565b005b6101d6600480360360208110156101c057600080fd5b81019080803590602001909291905050506115e2565b604051808273ffffffffffffffffffffffffffffffffffffffff1673ffffffffffffffffffffffffffffffffffffffff16815260200191505060405180910390f35b6103926004803603608081101561022e57600080fd5b81019080803590602001909291908035906020019064010000000081111561025557600080fd5b82018360208201111561026757600080fd5b8035906020019184600183028401116401000000008311171561028957600080fd5b91908080601f016020809104026020016040519081016040528093929190818152602001838380828437600081840152601f19601f820116905080830192505050505050509192919290803590602001906401000000008111156102ec57600080fd5b8201836020820111156102fe57600080fd5b8035906020019184600183028401116401000000008311171561032057600080fd5b91908080601f016020809104026020016040519081016040528093929190818152602001838380828437600081840152601f19601f820116905080830192505050505050509192919290803573ffffffffffffffffffffffffffffffffffffffff16906020019092919050505061161e565b005b6103d6600480360360208110156103aa57600080fd5b81019080803573ffffffffffffffffffffffffffffffffffffffff16906020019092919050505061184d565b604051808481526020018060200180602001838103835285818151815260200191508051906020019080838360005b83811015610420578082015181840152602081019050610405565b50505050905090810190601f16801561044d5780820380516001836020036101000a031916815260200191505b50838103825284818151815260200191508051906020019080838360005b8381101561048657808201518184015260208101905061046b565b50505050905090810190601f1680156104b35780820380516001836020036101000a031916815260200191505b509550505050505060405180910390f35b6104f0600480360360208110156104da57600080fd5b81019080803590602001909291905050506119a7565b604051808273ffffffffffffffffffffffffffffffffffffffff1673ffffffffffffffffffffffffffffffffffffffff16815260200191505060405180910390f35b610743600480360360a081101561054857600080fd5b81019080803590602001909291908035906020019064010000000081111561056f57600080fd5b82018360208201111561058157600080fd5b803590602001918460018302840111640100000000831117156105a357600080fd5b91908080601f016020809104026020016040519081016040528093929190818152602001838380828437600081840152601f19601f8201169050808301925050505050505091929192908035906020019064010000000081111561060657600080fd5b82018360208201111561061857600080fd5b8035906020019184600183028401116401000000008311171561063a57600080fd5b91908080601f016020809104026020016040519081016040528093929190818152602001838380828437600081840152601f19601f8201169050808301925050505050505091929192908035906020019064010000000081111561069d57600080fd5b8201836020820111156106af57600080fd5b803590602001918460018302840111640100000000831117156106d157600080fd5b91908080601f016020809104026020016040519081016040528093929190818152602001838380828437600081840152601f19601f820116905080830192505050505050509192919290803573ffffffffffffffffffffffffffffffffffffffff1690602001909291905050506119e3565b005b61081e6004803603604081101561075b57600080fd5b81019080803573ffffffffffffffffffffffffffffffffffffffff1690602001909291908035906020019064010000000081111561079857600080fd5b8201836020820111156107aa57600080fd5b803590602001918460018302840111640100000000831117156107cc57600080fd5b91908080601f016020809104026020016040519081016040528093929190818152602001838380828437600081840152601f19601f820116905080830192505050505050509192919290505050611d3c565b005b6108f96004803603604081101561083657600080fd5b810190808035906020019064010000000081111561085357600080fd5b82018360208201111561086557600080fd5b8035906020019184600183028401116401000000008311171561088757600080fd5b91908080601f016020809104026020016040519081016040528093929190818152602001838380828437600081840152601f19601f820116905080830192505050505050509192919290803573ffffffffffffffffffffffffffffffffffffffff16906020019092919050505061224e565b005b61093d6004803603602081101561091157600080fd5b81019080803573ffffffffffffffffffffffffffffffffffffffff169060200190929190505050612691565b6040518089815260200180602001806020018060200180602001888152602001806020018060200187810387528e818151815260200191508051906020019080838360005b8381101561099d578082015181840152602081019050610982565b50505050905090810190601f1680156109ca5780820380516001836020036101000a031916815260200191505b5087810386528d818151815260200191508051906020019080838360005b83811015610a035780820151818401526020810190506109e8565b50505050905090810190601f168015610a305780820380516001836020036101000a031916815260200191505b5087810385528c818151815260200191508051906020019080838360005b83811015610a69578082015181840152602081019050610a4e565b50505050905090810190601f168015610a965780820380516001836020036101000a031916815260200191505b5087810384528b818151815260200191508051906020019080838360005b83811015610acf578082015181840152602081019050610ab4565b50505050905090810190601f168015610afc5780820380516001836020036101000a031916815260200191505b50878103835289818151815260200191508051906020019080838360005b83811015610b35578082015181840152602081019050610b1a565b50505050905090810190601f168015610b625780820380516001836020036101000a031916815260200191505b50878103825288818151815260200191508051906020019080838360005b83811015610b9b578082015181840152602081019050610b80565b50505050905090810190601f168015610bc85780820380516001836020036101000a031916815260200191505b509e50505050505050505050505050505060405180910390f35b610c2460048036036020811015610bf857600080fd5b81019080803573ffffffffffffffffffffffffffffffffffffffff169060200190929190505050612a69565b604051808481526020018060200180602001838103835285818151815260200191508051906020019080838360005b83811015610c6e578082015181840152602081019050610c53565b50505050905090810190601f168015610c9b5780820380516001836020036101000a031916815260200191505b50838103825284818151815260200191508051906020019080838360005b83811015610cd4578082015181840152602081019050610cb9565b50505050905090810190601f168015610d015780820380516001836020036101000a031916815260200191505b509550505050505060405180910390f35b610d5460048036036020811015610d2857600080fd5b81019080803573ffffffffffffffffffffffffffffffffffffffff169060200190929190505050612bc3565b6040518080602001828103825283818151815260200191508051906020019080838360005b83811015610d94578082015181840152602081019050610d79565b50505050905090810190601f168015610dc15780820380516001836020036101000a031916815260200191505b509250505060405180910390f35b610e1b60048036036040811015610de557600080fd5b81019080803573ffffffffffffffffffffffffffffffffffffffff16906020019092919080359060200190929190505050612c79565b604051808215151515815260200191505060405180910390f35b61120c6004803603610100811015610e4c57600080fd5b810190808035906020019092919080359060200190640100000000811115610e7357600080fd5b820183602082011115610e8557600080fd5b80359060200191846001830284011164010000000083111715610ea757600080fd5b91908080601f016020809104026020016040519081016040528093929190818152602001838380828437600081840152601f19601f82011690508083019250505050505050919291929080359060200190640100000000811115610f0a57600080fd5b820183602082011115610f1c57600080fd5b80359060200191846001830284011164010000000083111715610f3e57600080fd5b91908080601f016020809104026020016040519081016040528093929190818152602001838380828437600081840152601f19601f82011690508083019250505050505050919291929080359060200190640100000000811115610fa157600080fd5b820183602082011115610fb357600080fd5b80359060200191846001830284011164010000000083111715610fd557600080fd5b91908080601f016020809104026020016040519081016040528093929190818152602001838380828437600081840152601f19601f820116905080830192505050505050509192919290803573ffffffffffffffffffffffffffffffffffffffff1690602001909291908035906020019064010000000081111561105857600080fd5b82018360208201111561106a57600080fd5b8035906020019184600183028401116401000000008311171561108c57600080fd5b91908080601f016020809104026020016040519081016040528093929190818152602001838380828437600081840152601f19601f820116905080830192505050505050509192919290803590602001906401000000008111156110ef57600080fd5b82018360208201111561110157600080fd5b8035906020019184600183028401116401000000008311171561112357600080fd5b91908080601f016020809104026020016040519081016040528093929190818152602001838380828437600081840152601f19601f8201169050808301925050505050505091929192908035906020019064010000000081111561118657600080fd5b82018360208201111561119857600080fd5b803590602001918460018302840111640100000000831117156111ba57600080fd5b91908080601f016020809104026020016040519081016040528093929190818152602001838380828437600081840152601f19601f820116905080830192505050505050509192919290505050612f2d565b005b6112f16004803603606081101561122457600080fd5b81019080803590602001909291908035906020019064010000000081111561124b57600080fd5b82018360208201111561125d57600080fd5b8035906020019184600183028401116401000000008311171561127f57600080fd5b91908080601f016020809104026020016040519081016040528093929190818152602001838380828437600081840152601f19601f820116905080830192505050505050509192919290803573ffffffffffffffffffffffffffffffffffffffff1690602001909291905050506133db565b005b6000600560003373ffffffffffffffffffffffffffffffffffffffff1673ffffffffffffffffffffffffffffffffffffffff16815260200190815260200160002060000154141561138f576040517f08c379a000000000000000000000000000000000000000000000000000000000815260040180806020018281038252602b815260200180613d04602b913960400191505060405180910390fd5b60001515611477600560003373ffffffffffffffffffffffffffffffffffffffff1673ffffffffffffffffffffffffffffffffffffffff1681526020019081526020016000206002018054600181600116156101000203166002900480601f01602080910402602001604051908101604052809291908181526020018280546001816001161561010002031660029004801561146c5780601f106114415761010080835404028352916020019161146c565b820191906000526020600020905b81548152906001019060200180831161144f57829003601f168201915b5050505050836135fd565b1515146114ec576040517f08c379a00000000000000000000000000000000000000000000000000000000081526004018080602001828103825260128152602001807f557064617465206d757374206265206d6574000000000000000000000000000081525060200191505060405180910390fd5b80600560003373ffffffffffffffffffffffffffffffffffffffff1673ffffffffffffffffffffffffffffffffffffffff1681526020019081526020016000206002019080519060200190611542929190613bf2565b507f9e33f5b213dab3748e6badb97ca4baf250657a625b4fb560801e50003e9ec005816040518080602001828103825283818151815260200191508051906020019080838360005b838110156115a557808201518184015260208101905061158a565b50505050905090810190601f1680156115d25780820380516001836020036101000a031916815260200191505b509250505060405180910390a150565b600281815481106115ef57fe5b906000526020600020016000915054906101000a900473ffffffffffffffffffffffffffffffffffffffff1681565b6001151561162b336136ff565b151514611683576040517f08c379a0000000000000000000000000000000000000000000000000000000008152600401808060200182810382526025815260200180613cba6025913960400191505060405180910390fd5b6000600560008373ffffffffffffffffffffffffffffffffffffffff1673ffffffffffffffffffffffffffffffffffffffff1681526020019081526020016000209050848160000181905550838160010190805190602001906116e7929190613bf2565b5082816002019080519060200190611700929190613bf2565b507fee0a9fcdeb399f439d300266235b31f90456a4d6fd4582d23bd3ad0d974eedfe858585856040518085815260200180602001806020018473ffffffffffffffffffffffffffffffffffffffff1673ffffffffffffffffffffffffffffffffffffffff168152602001838103835286818151815260200191508051906020019080838360005b838110156117a2578082015181840152602081019050611787565b50505050905090810190601f1680156117cf5780820380516001836020036101000a031916815260200191505b50838103825285818151815260200191508051906020019080838360005b838110156118085780820151818401526020810190506117ed565b50505050905090810190601f1680156118355780820380516001836020036101000a031916815260200191505b50965050505050505060405180910390a15050505050565b6003602052806000526040600020600091509050806000015490806001018054600181600116156101000203166002900480601f0160208091040260200160405190810160405280929190818152602001828054600181600116156101000203166002900480156118ff5780601f106118d4576101008083540402835291602001916118ff565b820191906000526020600020905b8154815290600101906020018083116118e257829003601f168201915b505050505090806002018054600181600116156101000203166002900480601f01602080910402602001604051908101604052809291908181526020018280546001816001161561010002031660029004801561199d5780601f106119725761010080835404028352916020019161199d565b820191906000526020600020905b81548152906001019060200180831161198057829003601f168201915b5050505050905083565b600781815481106119b457fe5b906000526020600020016000915054906101000a900473ffffffffffffffffffffffffffffffffffffffff1681565b6000809054906101000a900473ffffffffffffffffffffffffffffffffffffffff1673ffffffffffffffffffffffffffffffffffffffff163373ffffffffffffffffffffffffffffffffffffffff1614611a88576040517f08c379a0000000000000000000000000000000000000000000000000000000008152600401808060200182810382526027815260200180613d516027913960400191505060405180910390fd5b6000600160008373ffffffffffffffffffffffffffffffffffffffff1673ffffffffffffffffffffffffffffffffffffffff168152602001908152602001600020905085816000018190555084816001019080519060200190611aec929190613bf2565b5083816002019080519060200190611b05929190613bf2565b5082816003019080519060200190611b1e929190613bf2565b506002829080600181540180825580915050600190039060005260206000200160009091909190916101000a81548173ffffffffffffffffffffffffffffffffffffffff021916908373ffffffffffffffffffffffffffffffffffffffff1602179055507f26378e749e3ab3b999f8026861367f44aafb4f3ba720b080bc230a7d84522f348686868686604051808681526020018060200180602001806020018573ffffffffffffffffffffffffffffffffffffffff1673ffffffffffffffffffffffffffffffffffffffff168152602001848103845288818151815260200191508051906020019080838360005b83811015611c28578082015181840152602081019050611c0d565b50505050905090810190601f168015611c555780820380516001836020036101000a031916815260200191505b50848103835287818151815260200191508051906020019080838360005b83811015611c8e578082015181840152602081019050611c73565b50505050905090810190601f168015611cbb5780820380516001836020036101000a031916815260200191505b50848103825286818151815260200191508051906020019080838360005b83811015611cf4578082015181840152602081019050611cd9565b50505050905090810190601f168015611d215780820380516001836020036101000a031916815260200191505b509850505050505050505060405180910390a1505050505050565b60011515611d49336136ff565b151514611da1576040517f08c379a0000000000000000000000000000000000000000000000000000000008152600401808060200182810382526023815260200180613d786023913960400191505060405180910390fd5b6000600360008473ffffffffffffffffffffffffffffffffffffffff1673ffffffffffffffffffffffffffffffffffffffff168152602001908152602001600020600001541415611e3d576040517f08c379a0000000000000000000000000000000000000000000000000000000008152600401808060200182810382526022815260200180613c986022913960400191505060405180910390fd5b60011515611f34600360008573ffffffffffffffffffffffffffffffffffffffff1673ffffffffffffffffffffffffffffffffffffffff1681526020019081526020016000206002018054600181600116156101000203166002900480601f016020809104026020016040519081016040528092919081815260200182805460018160011615610100020316600290048015611f1a5780601f10611eef57610100808354040283529160200191611f1a565b820191906000526020600020905b815481529060010190602001808311611efd57829003601f168201915b5050505050604051806020016040528060008152506135fd565b151514156120ff5780600360008473ffffffffffffffffffffffffffffffffffffffff1673ffffffffffffffffffffffffffffffffffffffff1681526020019081526020016000206002019080519060200190611f92929190613bf2565b507fb6f70d0d99b9796a919af0868c55b4c19502f7e67d1b35154b8a110acedf8c72600360008473ffffffffffffffffffffffffffffffffffffffff1673ffffffffffffffffffffffffffffffffffffffff168152602001908152602001600020600101826040518080602001806020018381038352858181546001816001161561010002031660029004815260200191508054600181600116156101000203166002900480156120845780601f1061205957610100808354040283529160200191612084565b820191906000526020600020905b81548152906001019060200180831161206757829003601f168201915b5050838103825284818151815260200191508051906020019080838360005b838110156120be5780820151818401526020810190506120a3565b50505050905090810190601f1680156120eb5780820380516001836020036101000a031916815260200191505b5094505050505060405180910390a161224a565b600015156121e7600360008573ffffffffffffffffffffffffffffffffffffffff1673ffffffffffffffffffffffffffffffffffffffff1681526020019081526020016000206002018054600181600116156101000203166002900480601f0160208091040260200160405190810160405280929190818152602001828054600181600116156101000203166002900480156121dc5780601f106121b1576101008083540402835291602001916121dc565b820191906000526020600020905b8154815290600101906020018083116121bf57829003601f168201915b5050505050836135fd565b15151461223f576040517f08c379a0000000000000000000000000000000000000000000000000000000008152600401808060200182810382526025815260200180613cdf6025913960400191505060405180910390fd5b61224982826137ac565b5b5050565b6000600560003373ffffffffffffffffffffffffffffffffffffffff1673ffffffffffffffffffffffffffffffffffffffff1681526020019081526020016000206000015414156122ea576040517f08c379a000000000000000000000000000000000000000000000000000000000815260040180806020018281038252602b815260200180613d04602b913960400191505060405180910390fd5b600015156123d2600460008473ffffffffffffffffffffffffffffffffffffffff1673ffffffffffffffffffffffffffffffffffffffff1681526020019081526020016000206000018054600181600116156101000203166002900480601f0160208091040260200160405190810160405280929190818152602001828054600181600116156101000203166002900480156123c75780601f1061239c576101008083540402835291602001916123c7565b820191906000526020600020905b8154815290600101906020018083116123aa57829003601f168201915b5050505050846135fd565b151514612447576040517f08c379a00000000000000000000000000000000000000000000000000000000081526004018080602001828103825260128152602001807f557064617465206d757374206265206d6574000000000000000000000000000081525060200191505060405180910390fd5b6001151561245482613a3f565b1515146124c9576040517f08c379a000000000000000000000000000000000000000000000000000000000815260040180806020018281038252601d8152602001807f4f6e6c7920507269736f6e6572732063616e2068617665204a6f62732100000081525060200191505060405180910390fd5b6000600460008373ffffffffffffffffffffffffffffffffffffffff1673ffffffffffffffffffffffffffffffffffffffff168152602001908152602001600020905082816000019080519060200190612524929190613bf2565b507fde498ecec6db88d3df573139e1401a5607691012d649bea46be2a7b0edb77a78600660008473ffffffffffffffffffffffffffffffffffffffff1673ffffffffffffffffffffffffffffffffffffffff168152602001908152602001600020600101846040518080602001806020018381038352858181546001816001161561010002031660029004815260200191508054600181600116156101000203166002900480156126165780601f106125eb57610100808354040283529160200191612616565b820191906000526020600020905b8154815290600101906020018083116125f957829003601f168201915b5050838103825284818151815260200191508051906020019080838360005b83811015612650578082015181840152602081019050612635565b50505050905090810190601f16801561267d5780820380516001836020036101000a031916815260200191505b5094505050505060405180910390a1505050565b6006602052806000526040600020600091509050806000015490806001018054600181600116156101000203166002900480601f0160208091040260200160405190810160405280929190818152602001828054600181600116156101000203166002900480156127435780601f1061271857610100808354040283529160200191612743565b820191906000526020600020905b81548152906001019060200180831161272657829003601f168201915b505050505090806002018054600181600116156101000203166002900480601f0160208091040260200160405190810160405280929190818152602001828054600181600116156101000203166002900480156127e15780601f106127b6576101008083540402835291602001916127e1565b820191906000526020600020905b8154815290600101906020018083116127c457829003601f168201915b505050505090806003018054600181600116156101000203166002900480601f01602080910402602001604051908101604052809291908181526020018280546001816001161561010002031660029004801561287f5780601f106128545761010080835404028352916020019161287f565b820191906000526020600020905b81548152906001019060200180831161286257829003601f168201915b505050505090806004018054600181600116156101000203166002900480601f01602080910402602001604051908101604052809291908181526020018280546001816001161561010002031660029004801561291d5780601f106128f25761010080835404028352916020019161291d565b820191906000526020600020905b81548152906001019060200180831161290057829003601f168201915b505050505090806005015490806006018054600181600116156101000203166002900480601f0160208091040260200160405190810160405280929190818152602001828054600181600116156101000203166002900480156129c15780601f10612996576101008083540402835291602001916129c1565b820191906000526020600020905b8154815290600101906020018083116129a457829003601f168201915b505050505090806007018054600181600116156101000203166002900480601f016020809104026020016040519081016040528092919081815260200182805460018160011615610100020316600290048015612a5f5780601f10612a3457610100808354040283529160200191612a5f565b820191906000526020600020905b815481529060010190602001808311612a4257829003601f168201915b5050505050905088565b6005602052806000526040600020600091509050806000015490806001018054600181600116156101000203166002900480601f016020809104026020016040519081016040528092919081815260200182805460018160011615610100020316600290048015612b1b5780601f10612af057610100808354040283529160200191612b1b565b820191906000526020600020905b815481529060010190602001808311612afe57829003601f168201915b505050505090806002018054600181600116156101000203166002900480601f016020809104026020016040519081016040528092919081815260200182805460018160011615610100020316600290048015612bb95780601f10612b8e57610100808354040283529160200191612bb9565b820191906000526020600020905b815481529060010190602001808311612b9c57829003601f168201915b5050505050905083565b6004602052806000526040600020600091509050806000018054600181600116156101000203166002900480601f016020809104026020016040519081016040528092919081815260200182805460018160011615610100020316600290048015612c6f5780601f10612c4457610100808354040283529160200191612c6f565b820191906000526020600020905b815481529060010190602001808311612c5257829003601f168201915b5050505050905081565b600060011515612c88336136ff565b151514612ce0576040517f08c379a0000000000000000000000000000000000000000000000000000000008152600401808060200182810382526023815260200180613d786023913960400191505060405180910390fd5b60011515612ced84613a3f565b151514612d62576040517f08c379a000000000000000000000000000000000000000000000000000000000815260040180806020018281038252601e8152602001807f4f6e6c7920507269736f6e6572732063616e20626520696e2043656c6c73000081525060200191505060405180910390fd5b6000600660008573ffffffffffffffffffffffffffffffffffffffff1673ffffffffffffffffffffffffffffffffffffffff168152602001908152602001600020600501541415612e645781600660008573ffffffffffffffffffffffffffffffffffffffff1673ffffffffffffffffffffffffffffffffffffffff168152602001908152602001600020600501819055507f745af81677a0d8142530f2790dc6db26cf90b9f080b7ebdf3636c25ed4ac9d298383604051808373ffffffffffffffffffffffffffffffffffffffff1673ffffffffffffffffffffffffffffffffffffffff1681526020018281526020019250505060405180910390a1612f27565b81600660008573ffffffffffffffffffffffffffffffffffffffff1673ffffffffffffffffffffffffffffffffffffffff168152602001908152602001600020600501541415612f1c576040517f08c379a00000000000000000000000000000000000000000000000000000000081526004018080602001828103825260208152602001807f4f6c6420616e64204e65772043656c6c2063616e6e6f742062652053616d652181525060200191505060405180910390fd5b612f268383613aec565b5b92915050565b60011515612f3a336136ff565b151514612f92576040517f08c379a0000000000000000000000000000000000000000000000000000000008152600401808060200182810382526022815260200180613d2f6022913960400191505060405180910390fd5b6000600660008673ffffffffffffffffffffffffffffffffffffffff1673ffffffffffffffffffffffffffffffffffffffff168152602001908152602001600020905088816000018190555087816001019080519060200190612ff6929190613bf2565b508681600201908051906020019061300f929190613bf2565b5085816003019080519060200190613028929190613bf2565b5083816004019080519060200190613041929190613bf2565b508281600601908051906020019061305a929190613bf2565b5081816007019080519060200190613073929190613bf2565b506007859080600181540180825580915050600190039060005260206000200160009091909190916101000a81548173ffffffffffffffffffffffffffffffffffffffff021916908373ffffffffffffffffffffffffffffffffffffffff1602179055507ff80585ed02832f609ac5e0b29943c415c5ed9508a08389347a23f8cd75bbf7028989898989898989604051808981526020018060200180602001806020018873ffffffffffffffffffffffffffffffffffffffff1673ffffffffffffffffffffffffffffffffffffffff16815260200180602001806020018060200187810387528e818151815260200191508051906020019080838360005b8381101561318c578082015181840152602081019050613171565b50505050905090810190601f1680156131b95780820380516001836020036101000a031916815260200191505b5087810386528d818151815260200191508051906020019080838360005b838110156131f25780820151818401526020810190506131d7565b50505050905090810190601f16801561321f5780820380516001836020036101000a031916815260200191505b5087810385528c818151815260200191508051906020019080838360005b8381101561325857808201518184015260208101905061323d565b50505050905090810190601f1680156132855780820380516001836020036101000a031916815260200191505b5087810384528a818151815260200191508051906020019080838360005b838110156132be5780820151818401526020810190506132a3565b50505050905090810190601f1680156132eb5780820380516001836020036101000a031916815260200191505b50878103835289818151815260200191508051906020019080838360005b83811015613324578082015181840152602081019050613309565b50505050905090810190601f1680156133515780820380516001836020036101000a031916815260200191505b50878103825288818151815260200191508051906020019080838360005b8381101561338a57808201518184015260208101905061336f565b50505050905090810190601f1680156133b75780820380516001836020036101000a031916815260200191505b509e50505050505050505050505050505060405180910390a1505050505050505050565b600115156133e8336136ff565b151514613440576040517f08c379a0000000000000000000000000000000000000000000000000000000008152600401808060200182810382526023815260200180613d786023913960400191505060405180910390fd5b6000151561344d82613a3f565b1515146134c2576040517f08c379a000000000000000000000000000000000000000000000000000000000815260040180806020018281038252601c8152602001807f507269736f6e6572732063616e6e6f742062652073656375726974790000000081525060200191505060405180910390fd5b6000600360008373ffffffffffffffffffffffffffffffffffffffff1673ffffffffffffffffffffffffffffffffffffffff168152602001908152602001600020905083816000018190555082816001019080519060200190613526929190613bf2565b507fcb5f8af23dd4a7aa2076561df383e03f2d8eb3ac43aecc8d736ba5afccb6c50c838360405180806020018373ffffffffffffffffffffffffffffffffffffffff1673ffffffffffffffffffffffffffffffffffffffff168152602001828103825284818151815260200191508051906020019080838360005b838110156135bc5780820151818401526020810190506135a1565b50505050905090810190601f1680156135e95780820380516001836020036101000a031916815260200191505b50935050505060405180910390a150505050565b6000815183511461361157600090506136f9565b816040516020018082805190602001908083835b602083106136485780518252602082019150602081019050602083039250613625565b6001836020036101000a03801982511681845116808217855250505050505090500191505060405160208183030381529060405280519060200120836040516020018082805190602001908083835b602083106136ba5780518252602082019150602081019050602083039250613697565b6001836020036101000a038019825116818451168082178552505050505050905001915050604051602081830303815290604052805190602001201490505b92915050565b6000806000905060008090505b6002805490508163ffffffff1610156137a25760028163ffffffff168154811061373257fe5b9060005260206000200160009054906101000a900473ffffffffffffffffffffffffffffffffffffffff1673ffffffffffffffffffffffffffffffffffffffff168473ffffffffffffffffffffffffffffffffffffffff16141561379557600191505b808060010191505061370c565b5080915050919050565b6000600360008473ffffffffffffffffffffffffffffffffffffffff1673ffffffffffffffffffffffffffffffffffffffff168152602001908152602001600020600201905081600360008573ffffffffffffffffffffffffffffffffffffffff1673ffffffffffffffffffffffffffffffffffffffff1681526020019081526020016000206002019080519060200190613848929190613bf2565b507f196ce44c92dbdd7bbeffceea5f223273f5f152212032a2b756d0406718a0a08e600360008573ffffffffffffffffffffffffffffffffffffffff1673ffffffffffffffffffffffffffffffffffffffff16815260200190815260200160002060010182846040518080602001806020018060200184810384528781815460018160011615610100020316600290048152602001915080546001816001161561010002031660029004801561393f5780601f106139145761010080835404028352916020019161393f565b820191906000526020600020905b81548152906001019060200180831161392257829003601f168201915b50508481038352868181546001816001161561010002031660029004815260200191508054600181600116156101000203166002900480156139c25780601f10613997576101008083540402835291602001916139c2565b820191906000526020600020905b8154815290600101906020018083116139a557829003601f168201915b5050848103825285818151815260200191508051906020019080838360005b838110156139fc5780820151818401526020810190506139e1565b50505050905090810190601f168015613a295780820380516001836020036101000a031916815260200191505b50965050505050505060405180910390a1505050565b6000806000905060008090505b6007805490508163ffffffff161015613ae25760078163ffffffff1681548110613a7257fe5b9060005260206000200160009054906101000a900473ffffffffffffffffffffffffffffffffffffffff1673ffffffffffffffffffffffffffffffffffffffff168473ffffffffffffffffffffffffffffffffffffffff161415613ad557600191505b8080600101915050613a4c565b5080915050919050565b6000600660008473ffffffffffffffffffffffffffffffffffffffff1673ffffffffffffffffffffffffffffffffffffffff16815260200190815260200160002060050154905081600660008573ffffffffffffffffffffffffffffffffffffffff1673ffffffffffffffffffffffffffffffffffffffff168152602001908152602001600020600501819055507f93e4f4bf448c1b561f857579a03b39f48af6a7a72200deb83b1f2d923a993443838284604051808473ffffffffffffffffffffffffffffffffffffffff1673ffffffffffffffffffffffffffffffffffffffff168152602001838152602001828152602001935050505060405180910390a1505050565b828054600181600116156101000203166002900490600052602060002090601f016020900481019282601f10613c3357805160ff1916838001178555613c61565b82800160010185558215613c61579182015b82811115613c60578251825591602001919060010190613c45565b5b509050613c6e9190613c72565b5090565b613c9491905b80821115613c90576000816000905550600101613c78565b5090565b9056fe4f6e6c792053656375726974792063616e20686176652041737369676e6d656e74734f6e6c792057617264656e2063616e20416464206e6577204a6f622050726f7669646572214f6c6420616e64204e65772041737369676e6d656e742063616e6e6f742062652073616d654f6e6c79204a6f622050726f7669646572732063616e2061636365737320746869732066756e6374696f6e4f6e6c792057617264656e2063616e20416464206e657720507269736f6e657273214f6e6c792041646d696e206861732041636365737320746f20746869732046756e6374696f6e214f6e6c792057617264656e2063616e2061737369676e2063656c6c206e756d62657273a26469706673582212200ab8147f4972828ff91468f25684707f1a1c8fa6eaa758f35c5f77b298a2b07864736f6c63430006070033",
  "immutableReferences": {},
  "source": "pragma solidity 0.6.7;\n\ncontract prisonManagement {\n\taddress private admin;\n  \n\t//Modifiers\n\tmodifier onlyAdmin(){\n  \trequire(msg.sender==admin,\"Only Admin has Access to this Function!\");_;\n  }\n\n\n  //Events\n  event Warden_Set(\n  \tuint id,\n  \tstring first_name,\n  \tstring last_name,\n  \tstring dob,\n  \taddress _address);\n\n    event Prisoner_Set(\n  \tuint id,\n  \tstring first_name,\n  \tstring last_name,\n  \tstring doj,\n  \taddress _address,\n  \tstring dol,\n  \tstring belongings,\n  \tstring medicalhistory);\n\n  \tevent prisoner_newCell(\n  \t\taddress _address,\n  \t\tuint _cell);\n\n  \tevent prisoner_Transferred(\n  \t\taddress _address,\n  \t\tuint _oldcell,\n  \t\tuint _newcell);\n\n  \tevent JobProvider_Set(\n  \t\tuint id,\n  \t\tstring name,\n  \t\tstring jobs,\n  \t\taddress _address);\n\n  \tevent Jobs_Updated(\n  \t\tstring jobs);\n\n  \tevent Prisoner_newJob(\n  \t\tstring name,\n  \t\tstring job);\n\n    event new_Security(\n      string name,\n      address _address\n      );\n\n    event security_newAssignment(\n      string name,\n      string assignment);\n\n    event security_changedAssignment(\n      string name,\n      string oldassignment,\n      string newassignment);\n\n  constructor() public {\n  \tadmin=msg.sender;\n  }\n\n  struct warden{\n  \tuint id;\n  \tstring first_name;\n  \tstring last_name;\n  \tstring dob;\n  }\n\n  mapping (address => warden) Warden;\n  address[] public wardens;\n\n  struct prisoner{\n  \tuint id;\n  \tstring first_name;\n  \tstring last_name;\n  \tstring doj;\n  \tstring dol;\n  \tuint cell;\n  \tstring belongings;\n  \tstring medical;\n  \t//string job;\n  }\n\n  struct jobProvider{\n  \tuint id;\n  \tstring name;\n  \tstring jobs;\n  }\n\n  struct workingJobs{\n  \tstring work;\n    }\n\n  struct Security{\n    uint id;\n    string name;\n    string assignment;\n\n  }\n\n  mapping(address => Security) public security;\n\n  mapping(address => workingJobs) public WorkingPrisoner;\n\n  mapping (address => jobProvider) public JobProvider;\n\n\n  mapping (address => prisoner) public Prisoner;\n  address[] public prisoners;\n\n  function set_Warden(uint _id, string memory _first_name, string memory _last_name, string memory _dob, address _address) public onlyAdmin() {\n  \twarden storage Person = Warden[_address];\n  \tPerson.id=_id;\n  \tPerson.first_name=_first_name;\n  \tPerson.last_name=_last_name;\n  \tPerson.dob=_dob;\n  \twardens.push(_address);\n  \temit Warden_Set(_id,_first_name,_last_name,_dob,_address);\n  }\n\n  function set_Prisoner(uint _id, string memory _first_name, string memory _last_name,string memory _doj, address _address,string memory _dol,string memory _belongings,string memory _medical) public {\n  \trequire(checkWarden(msg.sender)==true,\"Only Warden can Add new Prisoners!\");\n  \tprisoner storage Person = Prisoner[_address];\n  \tPerson.id=_id;\n  \tPerson.first_name=_first_name;\n  \tPerson.last_name=_last_name;\n  \tPerson.doj=_doj;\n  \tPerson.dol=_dol;\n  \tPerson.belongings=_belongings;\n  \tPerson.medical=_medical;\n  \tprisoners.push(_address);\n  \temit Prisoner_Set(_id,_first_name,_last_name,_doj,_address,_dol,_belongings,_medical);\n  }\n\n  function set_JobProvider(uint _id,string memory _name, string memory _jobs,address _address) public {\n  \trequire(checkWarden(msg.sender)==true,\"Only Warden can Add new Job Provider!\");\n  \tjobProvider storage Person = JobProvider[_address];\n  \tPerson.id=_id;\n  \tPerson.name=_name;\n  \tPerson.jobs=_jobs;\n  \temit JobProvider_Set(_id,_name,_jobs,_address);\n  }\n\n  function update_Jobs(string memory _jobs) public {\n  \trequire(JobProvider[msg.sender].id!=0,\"Only Job Providers can access this function\");\n  \trequire(hashCompareWithLengthCheck(JobProvider[msg.sender].jobs,_jobs)==false,\"Update must be met\");\n  \tJobProvider[msg.sender].jobs=_jobs;\n  \temit Jobs_Updated(_jobs);\n  }\n\n  function set_Work(string memory _jobwork, address _address) public {\n  \trequire(JobProvider[msg.sender].id!=0,\"Only Job Providers can access this function\");\n  \trequire(hashCompareWithLengthCheck(WorkingPrisoner[_address].work,_jobwork)==false,\"Update must be met\");\n  \trequire(checkPrisoner(_address)==true,\"Only Prisoners can have Jobs!\");\n  \tworkingJobs storage Person = WorkingPrisoner[_address];\n  \tPerson.work = _jobwork;\n  \temit Prisoner_newJob(Prisoner[_address].first_name,_jobwork);\n  }\n\n  function set_Security(uint _id, string memory _name, address _address) public {\n    require(checkWarden(msg.sender)==true,\"Only Warden can assign cell numbers\");\n    require(checkPrisoner(_address)==false,\"Prisoners cannot be security\");\n    Security storage Person = security[_address];\n    Person.id=_id;\n    Person.name=_name;\n    emit new_Security(_name,_address);\n  }\n\n  function set_AssignmentSecurity(address _address,string memory _assignment) public {\n    require(checkWarden(msg.sender)==true,\"Only Warden can assign cell numbers\");\n    require(security[_address].id!=0,\"Only Security can have Assignments\");\n    if(hashCompareWithLengthCheck(security[_address].assignment,'')==true){\n      security[_address].assignment=_assignment;\n      emit security_newAssignment(security[_address].name,_assignment);\n    } else {\n      require(hashCompareWithLengthCheck(security[_address].assignment,_assignment)==false,\"Old and New Assignment cannot be same\");\n      change_AssignmentSecurity(_address,_assignment);\n    }\n  }\n\n  function change_AssignmentSecurity(address _address,string memory _assignment) private {\n    string storage oldassignment = security[_address].assignment;\n    security[_address].assignment=_assignment;\n    emit security_changedAssignment(security[_address].name,oldassignment,_assignment);\n  }\n\n\n  function checkWarden(address _address) private view returns(bool){\n        bool c=false;\n        for(uint32 i=0;i<wardens.length;i++){\n            if(_address==wardens[i])\n              c=true;\n        }\n        return(c);\n    }\n\n  function set_Cell(address _address,uint _cell) public returns(bool){\n  \trequire(checkWarden(msg.sender)==true,\"Only Warden can assign cell numbers\");\n  \trequire(checkPrisoner(_address)==true,\"Only Prisoners can be in Cells\");\n  \tif(Prisoner[_address].cell==0){\n  \t\tPrisoner[_address].cell=_cell;\n  \t\temit prisoner_newCell(_address,_cell);\n  \t} else {\n  \t\trequire(Prisoner[_address].cell!=_cell,\"Old and New Cell cannot be Same!\");\n  \t\tprisoner_Transfer(_address,_cell);\n  \t}\n\n  }\n\n  function prisoner_Transfer(address _address,uint _newcell) private {\n  \tuint oldcell;\n  \toldcell = Prisoner[_address].cell;\n  \tPrisoner[_address].cell=_newcell;\n  \temit prisoner_Transferred(_address,oldcell,_newcell);\n  }\n\n  function checkPrisoner(address _address) private view returns(bool){\n      bool c=false;\n      for(uint32 i=0;i<prisoners.length;i++){\n          if(_address==prisoners[i])\n            c=true;\n      }\n      return(c);\n  }\n\n    function hashCompareWithLengthCheck(string memory a,string memory b) private pure returns(bool){\n    if(bytes(a).length != bytes(b).length) {\n        return false;\n    \t} else {\n        return keccak256(abi.encodePacked(a)) == keccak256(abi.encodePacked(b));\n    \t}\n\t\t}\n}\n\n\n\n\n",
  "sourcePath": "C:\\Users\\Aaryamann\\Desktop\\prisonManagement\\contracts\\prisonManagement.sol",
  "compiler": {
    "name": "solc",
    "version": "0.6.7+commit.b8d736ae.Emscripten.clang"
  },
  "schemaVersion": "3.1.0",
  "updatedAt": "2020-05-28T05:38:55.995Z",
  "devdoc": {
    "methods": {}
  },
  "userdoc": {
    "methods": {}
  }
}